:100000000C940B010C948B040C9464040C94900ECF
:100010000C94900E0C94900E0C9433010C943301BC
:100020000C9433010C9433010C9433010C94330180
:100030000C9433010C9433010C9433010C94330170
:100040000C949B110C9433010C94EF040C94C90490
:100050000C9433010C9433010C9433010C94330150
:100060000C94C30F0C94330100407A10F35A00A093
:10007000724E18090010A5D4E80000E87648170071
:1000800000E40B54020000CA9A3B000000E1F505B1
:10009000000080969800000040420F000000A086FB
:1000A00001000000102700000000E803000000002D
:1000B0006400000000000A000000000001000000D1
:1000C00000002C76D888DC674F0823DFC1DFAE59EB
:1000D000E1B1B796E5E3E453C63AE651997696E87E
:1000E000E6C28426EB898C9B62ED407C6FFCEFBC02
:1000F0009C9F40F2BAA56FA5F490055A2AF75C932D
:100100006B6CF9676DC11BFCE0E40D47FEF520E662
:10011000B500D0ED902E0300943577050080841E45
:10012000080000204E0A000000C80C333333330FA0
:10013000986E12831141EF8D2114893BE65516CF3D
:10014000FEE6DB18D1844B381BF77C1D901DA4BB49
:10015000E424203284725E228100C9F124ECA1E5FE
:100160003D27745F54564F43496E00745F434F32CE
:10017000496E00745F68756D496E00745F74656DDB
:1001800070496E007661725F446F5765656B0076EB
:1001900061725F4D6F6E746800745F4461746500D6
:1001A000745F5965617200000000080002010000E0
:1001B000030407000000000000000000000000240D
:1001C0000027002A0000000000230026002900006C
:1001D000000000250028002B00040404040404048B
:1001E00004020202020202030303030303010204E6
:1001F00008102040800102040810200102040810A9
:1002000020745F4D696E75746500745F486F757218
:1002100000005A178B1811241FBECFEFD8E0DEBFA5
:10022000CDBF11E0A0E0B1E0E8EEF4E402C005903B
:100230000D92A43BB107D9F725E0A4EBB1E001C0D2
:100240001D92A63FB207E1F711E0CAE0D1E004C079
:100250002197FE010E94B21DC930D107C9F70E9443
:10026000E5110C9467220C9400000895CF92DF9260
:10027000EF92FF920F931F93CF93DF936C017A015C
:100280008B01C0E0D0E0CE15DF0581F0D8016D9183
:100290008D01D601ED91FC910190F081E02DC60118
:1002A0000995892B11F02196EECF7E01C701DF91D0
:1002B000CF911F910F91FF90EF90DF90CF90089515
:1002C000FC01538D448D252F30E0842F90E0821B5C
:1002D000930B541710F0CF96089501970895FC01E1
:1002E000918D828D981761F0828DDF01A80FB11D6D
:1002F0005D968C91928D9F5F9F73928F90E0089591
:100300008FEF9FEF0895FC01918D828D981731F04A
:10031000828DE80FF11D858D90E008958FEF9FEF9E
:100320000895FC01918D228D892F90E0805C9F4F74
:10033000821B91098F739927089580EE93E00E94A4
:10034000910121E0892B09F420E0822F0895FC011E
:10035000848DDF01A80FB11DA35ABF4F2C91848D4E
:1003600090E001968F739927848FA689B7892C9383
:10037000A089B1898C91837080648C93938D848DD6
:10038000981306C00288F389E02D80818F7D8083D9
:100390000895EF92FF920F931F93CF93DF93EC0199
:1003A00081E0888F9B8D8C8D981305C0E889F98931
:1003B000808185FD26C0F62E0B8D10E00F5F1F4F4C
:1003C0000F731127E02E8C8DE8120CC00FB607FCBE
:1003D000FACFE889F989808185FFF5CFCE010E94A7
:1003E000A701F1CF8B8DFE01E80FF11DE35AFF4FFE
:1003F000F0829FB7F8940B8FEA89FB898081806235
:100400000AC09FB7F894EE89FF896083E889F9896B
:1004100080818370806480839FBF81E090E0DF9162
:10042000CF911F910F91FF90EF900895CF93DF939D
:10043000EC01888D8823C9F0EA89FB89808185FDDC
:1004400005C0A889B9898C9186FD0FC00FB607FC3D
:10045000F5CF808185FFF2CFA889B9898C9185FF7E
:10046000EDCFCE010E94A701E7CFDF91CF91089594
:1004700080E090E0892B29F00E949D0181110C946D
:10048000000008950E949F1F0F931F93CF93DF9347
:10049000EB010E948F118B010E94110F8F3F49F0D9
:1004A0000E948F11601B710B6C177D07A8F380E011
:1004B00001C081E0DF91CF911F910F91089561E01C
:1004C000FC0184810E940D0C8091DA01811110924F
:1004D000DA010895CF93DF93EC018E81882389F0B0
:1004E0008F8198859C012F5F3F4F38872F83823003
:1004F000924018F40E94110FF3CFCE010E945F02C8
:100500001E82DF91CF9108958F929F92AF92BF92FA
:10051000FF920F931F93CF93DF93EC01F62E4901C7
:100520005A010E946A028091DA01811109C081E0BA
:100530008093DA0190917D0480917E049CBD8DBDF5
:1005400060E08C810E940D0C6CE271E0CE010E9493
:1005500044028F2D80640E940A0F08E110E0D5014B
:10056000C401002E04C0B695A795979587950A9467
:10057000D2F70E940A0F08501109083F8FEF1807A1
:1005800071F7FF2029F088E0F81204C087E803C063
:1005900085E901C08FEF0E940A0F10E00E94110F41
:1005A0008A8787FF04C01F3F11F01F5FF7CFDF91DD
:1005B000CF911F910F91FF90BF90AF909F908F9020
:1005C0000895EF92FF920F931F93CF93DF93EC0167
:1005D0007901411551056105710511F482E13CC0B5
:1005E0008B85833039F089E0440F551F661F771FD4
:1005F0008A95D1F79A01AB0168E1CE010E9484028D
:10060000882311F084E028C08EEF0E940A0F870132
:100610008EEFF81AF80181918F010E940A0FE016FF
:10062000F106C1F78FEF0E940A0F8FEF0E940A0FA9
:100630000E94110F8A878F71853031F081E18D839F
:10064000CE010E945F0209C068E572E0CE010E94FF
:100650004402811107C085E18D83CE010E945F02B3
:1006600080E014C020E030E0A9016DE0CE010E94DE
:100670008402811109C00E94110F811105C0CE01B1
:100680000E945F0281E002C084E1E6CFDF91CF915A
:100690001F910F91FF90EF9008958091DB018823C7
:1006A00089F140910401509105016091060170911A
:1006B000070120EE31E080E090E00E94E10281112C
:1006C00002C080E008954091DC015091DD0160910D
:1006D000DE017091DF01411551056105710581F061
:1006E00020EE31E080E090E00E94E102882349F3AF
:1006F0001092DC011092DD011092DE011092DF01F8
:100700001092DB0181E00895AF92BF92CF92DF9209
:10071000EF92FF921F93CF93DF936B017C01142F15
:100720008091040190910501A0910601B09107010B
:100730008C159D05AE05BF0509F48FC00E944D03C1
:10074000882309F490C0809106008823A1F080914D
:10075000000090910100A0910200B0910300C81622
:10076000D906EA06FB0639F480910700909108004B
:10077000892B09F443C0C0920000D0920100E0929E
:100780000200F092030080910B00A70196018330D4
:1007900039F099E0220F331F441F551F9A95D1F766
:1007A00061E180E090E00E948402882321F083E0F0
:1007B0008093050044C00E948F11EB010E94110F2D
:1007C00080930A008F3F49F40E948F116C1B7D0BB0
:1007D0006D32714098F38FE003C08E3F41F08DE0A1
:1007E0008093050080E090E00E945F0228C0109294
:1007F00008001092070081E080930600C0EED1E06F
:1008000080EEA82E83E0B82E0E94110F8993AC16BB
:10081000BD06D1F780910700909108009E5F9093EC
:1008200008008093070020910900222319F0811508
:10083000924058F080E090E00E946A0206C080E09A
:1008400090E00E945F0280E00EC0C0920401D0924E
:100850000501E0920601F09207014091DB01412B76
:100860004093DB0181E0DF91CF911F91FF90EF90EA
:10087000DF90CF90BF90AF9008950F931F93CF93C9
:10088000DF93EC0188819981009729F02A813B81CF
:100890002617370788F48B016F5F7F4F0E94D91EA0
:1008A000009761F0998388831B830A832C813D81A3
:1008B000232B11F4FC01108281E001C080E0DF9164
:1008C000CF911F910F9108951F920F920FB60F9223
:1008D00011242F933F934F935F936F937F938F9345
:1008E0009F93AF93BF93EF93FF93E0910201F09139
:1008F00003010995FF91EF91BF91AF919F918F9166
:100900007F916F915F914F913F912F910F900FBE0B
:100910000F901F9018951F920F920FB60F921124EF
:100920002F933F934F935F936F937F938F939F93F7
:10093000AF93BF93EF93FF93E0910001F09101011A
:100940000995FF91EF91BF91AF919F918F917F9109
:100950006F915F914F913F912F910F900FBE0F902C
:100960001F9018956115710579F0FB010190002029
:10097000E9F73197AF01461B570BDC01ED91FC9174
:100980000280F381E02D099480E090E008950C94BA
:10099000B2041F920F920FB60F9211242F933F9320
:1009A0004F935F936F937F938F939F93AF93BF9377
:1009B000EF93FF9380EE93E00E94A701FF91EF91E8
:1009C000BF91AF919F918F917F916F915F914F9167
:1009D0003F912F910F900FBE0F901F9018951F926F
:1009E0000F920FB60F9211242F938F939F93EF9333
:1009F000FF93E091F003F091F1038081E091F60321
:100A0000F091F70382FD12C090818091F9038F5F0E
:100A10008F732091FA03821751F0E091F903F0E00F
:100A2000E052FC4F958F8093F90301C08081FF91C4
:100A3000EF919F918F912F910F900FBE0F901F906C
:100A40001895CF93DF93EC0180EE93E00E94910123
:100A5000892B29F080EE93E00E946F01F5CFBE0153
:100A600080EE93E00E94C7046FEF80EE93E00E9457
:100A7000C9016FEF80EE93E00E94C9016FEF80EE35
:100A800093E0DF91CF910C94C9014F925F926F92E6
:100A90007F928F929F92AF92BF92CF92DF92EF920E
:100AA000FF920F931F93CF93DF93EC0142305105D8
:100AB0006105710510F480E078C089859A85AB8561
:100AC000BC850196A11DB11D84179507A607B70720
:100AD00090F3CB88DC88ED88FE888F89803129F4FB
:100AE000BB27A72F962F852F09C0DB01CA01E7E09E
:100AF000B695A79597958795EA95D1F7480159013D
:100B00002A013B01C80ED91EEA1EFB1E809104017A
:100B100090910501A0910601B0910701C816D90670
:100B2000EA06FB0681F48F898031A9F4B301A201A2
:100B3000552766277727440F551FFA01E052FE4FCD
:100B40009182808219C040E0C701B6010E948403EF
:100B50008111E9CFB0CFB301A2014F7755276627A6
:100B60007727440F551F440F551FFA01E052FE4FDF
:100B700080829182A282B3828091DB018160809326
:100B8000DB018A89823080F08D819E81AF81B885BA
:100B9000C80ED91EEA1EFB1EC092DC01D092DD01F8
:100BA000E092DE01F092DF0181E0DF91CF911F91B1
:100BB0000F91FF90EF90DF90CF90BF90AF909F90FC
:100BC0008F907F906F905F904F9008958F929F923B
:100BD000AF92BF92CF92DF92EF92FF920F931F934B
:100BE000CF93DF93FC0181859285A385B48501961F
:100BF000A11DB11D84179507A607B70710F480E063
:100C00005BC083889488A588B6888789803129F459
:100C1000BB27A72F962F852F09C0DB01CA01C7E08C
:100C2000B695A79597958795CA95D1F7E9016A0179
:100C30007B018F01BC01CD01680D791D8A1D9B1DB3
:100C40008090040190900501A0900601B0900701EA
:100C5000681579058A059B0591F4F801878980312B
:100C6000A1F4DD24EE24FF24C601880F991FFC01A6
:100C7000E052FE4F80819181A0E0B0E018C040E0DA
:100C80000E9484038111E9CFBACFE894C7F8DD242C
:100C9000EE24FF24C601880F991F880F991FFC01BD
:100CA000E052FE4F80819181A281B381BF70888321
:100CB0009983AA83BB8381E0DF91CF911F910F912C
:100CC000FF90EF90DF90CF90BF90AF909F908F906C
:100CD00008954F925F926F927F92AF92BF92CF92A0
:100CE000DF92EF92FF920F931F93CF93DF9300D089
:100CF00000D01F92CDB7DEB78C016D83DC01159655
:100D00008C911597813009F054C014968C9181FF15
:100D100050C057C0258530E0275F3F4F2A013B0177
:100D2000B1E04B1A510861087108022E04C0769494
:100D30006794579447940A94D2F7D701C601019754
:100D4000A109B10904C0B695A795979587952A95ED
:100D5000D2F784159505A605B70508F076C0F80109
:100D60004789508D618D728D468357836087718767
:100D70002C013D015801F6E0AF0EB11C41145104A5
:100D80006104710409F46BC0D80116964D915D9110
:100D90006D917C91199795015B968D919C915C97D3
:100DA0000E94E605B1E04B1A5108610871088111F3
:100DB000E5CF81E090E0F8019383828380E090E0CA
:100DC0005BC182FF0EC0F80142855385648575853D
:100DD000C388D488E588F6884C155D056E057F05C7
:100DE000E9F4D8011A964D915D916D917C911D9712
:100DF0005B96ED91FC915C97948191506A017B0127
:100E000089E0F694E794D794C7948A95D1F79C210A
:100E10007A01B1E0FB22911173C027C0D801038C85
:100E2000F48DE02DC114D104E104F10409F072CF76
:100E300016961D921D921D921C9219971A961D923C
:100E40001D921D921C921D9714C0452B462B472BBB
:100E500009F485CF84199509A609B70989CFF80146
:100E6000C286D386E486F586BCCFE114F10409F08E
:100E700047C0D80116964D915D916D917C9119975F
:100E8000411551056105710559F457968D919D9154
:100E90000D90BC91A02D0097A105B10549F522C088
:100EA0009E012F5F3F4FCF010E94E605882309F482
:100EB00085CF89819A81AB81BC81F801238D348DE6
:100EC000F9012789203129F448EF5FEF60E070E0F5
:100ED00004C048EF5FEF6FEF7FE084179507A60728
:100EE000B70730F0C8010E940A0B811106C061CF1C
:100EF000F80186839783A087B187E12CF12C90E0DD
:100F0000D8015B96ED91FC915C9716964D905D90A3
:100F10006D907C901997B2E04B1A510861087108E6
:100F2000058404C0440C551C661C771C0A94D2F737
:100F30004685578560897189440E551E661E771E49
:100F4000490E511C611C711CE114F10409F5F801F2
:100F5000428553856485758583899489A589B68979
:100F6000481759076A077B0798F00E944D038823AA
:100F700009F41FCF409204015092050160920601CE
:100F8000709207018091DB0181608093DB0108C0D2
:100F900041E0C301B2010E948403882309F409CF10
:100FA000F701E052FE4F8D818083F80182859385A1
:100FB000A485B5850196A11DB11D82879387A4875D
:100FC000B5874389548965897689481759076A071F
:100FD0007B0738F4838B948BA58BB68B84818068D8
:100FE0008483D80114968C9183FD03C081E090E046
:100FF00043C0F8019581992309F4DBCE87FF37C000
:10100000668577858089918941E00E9484038823E1
:1010100009F4CFCED8015296EC91B0E2EB9FF001EB
:101020001124E052FE4F309709F4C3CED801159633
:101030008C911597823050F453964D915D916D913E
:101040007C915697448F558F668F778FD80157962E
:101050004D915D916D917C915A97538F428F758B15
:10106000648B14968C9114978F7714968C930E94AE
:101070004D038111BBCF9DCE0F900F900F900F901D
:101080000F90DF91CF911F910F91FF90EF90DF9024
:10109000CF90BF90AF907F906F905F904F900895EA
:1010A000EF92FF920F931F93CF93DF93611571051A
:1010B00011F480E01FC0FB0101900020E9F7319797
:1010C000E61BF70BB1F07B01EC010C811D810E0FCB
:1010D0001F1FB8010E943D04882359F328813981DC
:1010E0008C819D81B701820F931F0E94AD1F1D83CC
:1010F0000C8381E0DF91CF911F910F91FF90EF90D2
:1011000008950F931F93CF93DF93EC018B010E94FF
:101110003D042881398181110DC02115310519F057
:10112000C9010E94501E198218821D821C821B82D6
:101130001A8207C01D830C836BE671E0C9010E940F
:10114000AD1FCE01DF91CF911F910F9108958F9226
:101150009F92AF92BF92EF92FF920F931F93CF9304
:10116000DF9300D000D0CDB7DEB719821A821B8280
:101170001C8284E690E0A0E0B0E08093E4039093CA
:10118000E503A093E603B093E7038E010F5F1F4FC3
:101190007E0185E0E80EF11C0E948F116093E80348
:1011A0007093E9038093EA039093EB0380EE93E05E
:1011B0000E946F0197FF2CC00E948F118090E8035E
:1011C0009090E903A090EA03B090EB03DC01CB011F
:1011D00088199909AA09BB098090E4039090E50356
:1011E000A090E603B090E70388159905AA05BB0512
:1011F000E8F28981813051F48A818F3F39F48B8103
:101200008F3F21F481E09C819F3F51F080E008C036
:10121000F80181938F01EE16FF0609F0BDCFE9CFEB
:101220000F900F900F900F90DF91CF911F910F9122
:10123000FF90EF90BF90AF909F908F900895EF92A6
:10124000FF920F931F93CF93DF9300D000D000D075
:10125000CDB7DEB77C018B011A8219821C821B82FA
:101260001E821D8260E070E0CE0101960E9481081E
:10127000F70162817381CE0101960E94500867EAEE
:1012800071E0CE0101960E945008B801CE0101968E
:101290000E9450086CEA71E0CE0101960E9450084D
:1012A00089819A810E9421050E94A708182F8981AF
:1012B0009A810E94501E812F26960FB6F894DEBFA9
:1012C0000FBECDBFDF91CF911F910F91FF90EF9097
:1012D00008958F929F92AF92BF92EF92FF920F93D9
:1012E0001F93CF93DF93CDB7DEB760970FB6F89417
:1012F000DEBF0FBECDBF7C014A015B018E010F5FD7
:101300001F4F8AE0F80111928A95E9F71C861B8627
:101310001E861D86188A1F8660E070E0CE010B963F
:101320000E9481084AE0B801C4010E942C19F7010B
:1013300062817381CE010B960E9450086EEA71E0C3
:10134000CE010B960E945008B801CE010B960E9468
:1013500050088B859C850E9421050E94A708182FA4
:101360008B859C850E94501E812F60960FB6F89445
:10137000DEBF0FBECDBFDF91CF911F910F91FF90C8
:10138000EF90BF90AF909F908F900895682F8FE758
:1013900094E00C944A0E8F929F92AF92BF920F935B
:1013A0001F93CF93DF93CDB7DEB7A1970FB6F89415
:1013B000DEBF0FBECDBF19A2423008F44AE08E0155
:1013C0000F5D1F4F842E912CA12CB12CA5019401EF
:1013D0000E94EC1CE62FB901CA0101501109EA3044
:1013E00014F4E05D01C0E95CD801EC93232B242BBD
:1013F000252B61F7B80186E994E00E94B204A1961A
:101400000FB6F894DEBF0FBECDBFDF91CF911F9115
:101410000F91BF90AF909F908F900895CF93DF93DF
:10142000682F70E080E090E04AE00E94CB09EC0178
:1014300069E671E086E994E00E94B2048C0F9D1F7A
:10144000DF91CF910895CF92DF92EF92FF92CF93E9
:10145000DF936B017C016DE286E994E00E94310D1F
:10146000EC0166277727CB016C197D098E099F094E
:101470004AE00E94CB098C0F9D1FDF91CF91FF9016
:10148000EF90DF90CF90089597FD0C94230A4AE0E7
:101490000C94CB098F929F92AF92BF92CF92DF9222
:1014A000EF92FF920F931F93CF93C82F60E4809128
:1014B0009304909194040E94700F809193049091F2
:1014C0009404DC01ED91FC910190F081E02D6C2FF2
:1014D000099580919304909194040E94140FCAE09E
:1014E0000E946A114B015C01AAE0CA2ED12CE12CAA
:1014F000F12C0E946A11DC01CB0188199909AA0913
:10150000BB09883E9340A105B10598F3B1E0CB1A21
:10151000D108E108F10828EE820E23E0921EA11CFA
:10152000B11CC114D104E104F10419F743E050E007
:1015300060E470E080919304909194040E947A0F8B
:10154000C15009F456C0833059F6809193049091AC
:101550009404DC01ED91FC910284F385E02D099562
:10156000F82E8091930490919404DC01ED91FC910C
:101570000284F385E02D0995C82F80919304909102
:101580009404DC01ED91FC910284F385E02D099532
:101590001F2D00E098012C2BA90160E070E0762F50
:1015A000652F542F4427482B87E190E0C12CE0E8B9
:1015B000DE2EE8E9EE2EF12C4A015B01082E04C074
:1015C000B694A794979487940A94D2F780FE04C0A7
:1015D0004C255D256E257F25F694E794D794C79416
:1015E00001978730910541F7411106C0C9018C7FF1
:1015F00005C086EE93E002C087EE93E0CF911F9185
:101600000F91FF90EF90DF90CF90BF90AF909F90A1
:101610008F9008953F924F925F926F927F928F9238
:101620009F92AF92BF92CF92DF92EF92FF920F9371
:101630001F93CF93DF93CDB7DEB72C970FB6F894F7
:10164000DEBF0FBECDBF5C01DC015B968D909C9030
:101650005C971696CD90DD90ED90FC901997C11493
:10166000D104E104F10439F0BFEFCB1ADB0AEB0A35
:10167000FB0A312C07C0F401C080D180E280F380E6
:1016800033243394F40181859285A385B4859C012C
:10169000AD012F5F3F4F4F4F5F4F29873A874B87F1
:1016A0005C87260137011D821E821F821886F40185
:1016B00081859285A385B4852D813E814F81588592
:1016C000281739074A075B0708F063C089859A85A0
:1016D000AB85BC858C159D05AE05BF0550F482E039
:1016E000C82ED12CE12CF12C92E0492E512C612CEA
:1016F000712C9E012F5F3F4FB701A601C4010E94CC
:10170000E605882309F445C089819A81AB81BC81B3
:10171000892B8A2B8B2B41F0260137019FEF491A29
:10172000590A690A790A05C0C414D504E604F70405
:1017300091F02D813E814F8158852F5F3F4F4F4F54
:101740005F4F2D833E834F8358873FEFC31AD30AE1
:10175000E30AF30AACCF0FEF1FEF2FEF3FE0B30127
:10176000A201C4010E944505882399F0D50116966F
:101770004D915D916D917C911997411551056105D0
:10178000710549F093018201C4010E944505811150
:1017900002C080E02AC0D50116964D925D926D92EE
:1017A0007C921997332051F0D301C2010196A11DFB
:1017B000B11DF40180839183A283B383F5018789EE
:1017C000908DA18DB28D892B8A2B8B2B69F4D5013D
:1017D00057964D925D926D927C925A9714968C9189
:1017E0001497806814968C9381E02C960FB6F89429
:1017F000DEBF0FBECDBFDF91CF911F910F91FF9044
:10180000EF90DF90CF90BF90AF909F908F907F90A0
:101810006F905F904F903F90089590E0FC01E955E4
:10182000FE4F2491FC01E351FE4F3491FC01E7523D
:10183000FE4FE491EE2309F43CC0222339F123301A
:1018400091F038F42130A9F0223001F584B58F7D74
:1018500012C0273091F02830A1F02430B9F48091E3
:1018600080008F7D03C0809180008F7780938000FF
:101870000DC084B58F7784BD09C08091B0008F778B
:1018800003C08091B0008F7D8093B000F0E0EE0F38
:10189000FF1FE153FE4FA591B4919FB7F8946111DA
:1018A00004C08C913095382302C0EC913E2B3C93C0
:1018B0009FBF089561E080918C040C940D0C60E052
:1018C00080918C040C940D0C0F931F93CF93DF9396
:1018D000082FEA01162F80918B048130B1F00E940D
:1018E0005F0C81E00E940A0F81E00E940A0F0E94B3
:1018F0005A0C0E945F0C85E00E940A0F8FEF0E9435
:101900000A0F80938B040E945A0C0E945F0C802F58
:101910000E940A0F80918D0490918E048130924034
:101920001CF0812F0E940A0F8D2F0E940A0F8C2F0E
:10193000DF91CF911F910F910C940A0F1F93CF93BA
:10194000DF93182FC0910E01D0910F01AE0160E01E
:1019500070E082E00E94640C812F0E940A0F0E94B6
:101960005A0C2196CA30D10529F0D0930F01C093AB
:101970000E0104C010920F0110920E01DF91CF9161
:101980001F910895CF9340910E0150910F01840F44
:10199000951FAC01889710F04A50510960E070E043
:1019A00083E00E94640C8FEF0E940A0FC82F0E94F0
:1019B0005A0C8C2FCF910895CF93DF9390E0FC01C8
:1019C000E351FE4F2491FC01E752FE4F849188239E
:1019D00061F190E0880F991FFC01E554FE4FC5911D
:1019E000D491FC01E153FE4FA591B491611109C05E
:1019F0009FB7F8948881209582238883EC912E23C9
:101A00000BC0623061F49FB7F8948881322F309513
:101A100083238883EC912E2B2C939FBF06C08FB716
:101A2000F894E8812E2B28838FBFDF91CF91089502
:101A30002091B6013091B7012817390771F49091C0
:101A4000B4018091B501981741F0E091B401F0E044
:101A5000E755FA4F808190E008958FEF9FEF08954A
:101A600008951F93CF93DF93DC015C968D919C9139
:101A70005D97009739F421E030E013963C932E9364
:101A800012973BC05196ED91FC91529750962C9134
:101A90005097322F30951FB75E964C915E97742FFA
:101AA000727041FD6095F8944081772311F0422BCC
:101AB00001C043234083EC012197F1F748E05081B6
:101AC00060FF02C0522B01C053235083EC012197C9
:101AD000F1F76695415099F78081772319F08323B8
:101AE000808302C0282B20831FBF5C968D919C9120
:101AF0005D970197F1F781E090E0DF91CF911F9121
:101B000008952091B6013091B7012817390771F473
:101B10008091B5012091B40190E0805C9F4F821BC1
:101B2000910960E470E00E948A1D089580E090E0D1
:101B300008952091B6013091B70128173907B9F4FB
:101B40009091B4018091B501981789F0E091B401AA
:101B5000F0E0E755FA4F80812091B40130E02F5F2B
:101B60003F4F2F7333272093B40190E008958FEFF8
:101B70009FEF089508950895E091C2018091C101F9
:101B8000E81730F4F0E0E757FA4F808190E00895CD
:101B90008FEF9FEF08959091C2018091C101981736
:101BA00050F4E92FF0E0E757FA4F208130E09F5FD3
:101BB0009093C20102C02FEF3FEFC90108958091B9
:101BC000C10190E02091C201821B910908950895FE
:101BD00080E090E0089585ED8093BC008091BC008A
:101BE00084FDFCCF1092BE01089540912005262F60
:101BF00030E0240F311D21323105DCF42091BE018B
:101C00002430C9F4FC0180E090E0861758F430914C
:101C100020052191DC01A050BB4FA30FB11D2C93D7
:101C20000196F3CF80912005680F6093200580E036
:101C3000089581E0089582E00895CF92DF92EF92B7
:101C4000FF920F931F93CF93DF937C01CB018A0107
:101C500020918805222389F0EB016B01C40ED51E6B
:101C6000CC15DD0569F06991D701ED91FC910190EA
:101C7000F081E02DC7010995F3CF642F0E94F50D87
:101C8000C801DF91CF911F910F91FF90EF90DF90EE
:101C9000CF900895CF93DF931F92CDB7DEB76983BE
:101CA000209188052223D1F02091BF01203240F0FD
:101CB00021E030E0FC013383228380E090E015C016
:101CC0008091C001E82FF0E0E859FA4F99819083A4
:101CD0008F5F8093C0018093BF0105C061E0CE019A
:101CE00001960E94F50D81E090E00F90DF91CF9179
:101CF00008958091CA0180FD03C082608093CA016B
:101D00008091FF048F5F813019F08093FF04089564
:101D10001092FF048091CA0184608093CA010895E3
:101D20001F920F920FB60F9211242F933F934F9350
:101D30005F936F937F938F939F93AF93BF93EF9333
:101D4000FF93E091B601F091B701309709F451C0CB
:101D5000968DA685B785858591FF04C09C918923C2
:101D600029F447C09C91892309F043C0A389B48911
:101D70009C918589809589238C9386899789019781
:101D8000F1F7608D718DA685B785558538E020E027
:101D9000CB010197F1F7822F90E095958795282F39
:101DA0004C91452309F02068315091F7868D81FDD3
:101DB00020958091B50190E001968F73992730911D
:101DC000B401381749F0A091B501B0E0A755BA4F5A
:101DD0002C938093B50103C0868D8160868F828DA0
:101DE000938D0197F1F7A389B4899C918589892BFB
:101DF0008C93FF91EF91BF91AF919F918F917F91C4
:101E00006F915F914F913F912F910F900FBE0F9067
:101E10001F9018958EBD00000DB407FEFDCF8EB546
:101E200008958FEF0C940A0F3091BF01313208F002
:101E30004BC08091BE018111FCCF9091670522E0DB
:101E40002093BE0121E02093BD012FEF2093660572
:101E50001092650530936405E8E6F5E0A4E4B5E08A
:101E600020E0321721F041914D932F5FFACF10926D
:101E7000430520914305990F922B90934305909130
:101E8000BC01913061F41092BC0190914305909394
:101E9000BB009091BC0093FDF8CF95EC01C095EE8E
:101EA0009093BC009091BE019230E1F39091660551
:101EB0009F3F79F080916605803241F08091660500
:101EC000803331F084E005C081E003C082E001C0CE
:101ED00083E01092C0011092BF011092880508950E
:101EE00081E080938805609367051092C00110928D
:101EF000BF0108958091BE018111FCCF413208F0ED
:101F000040E281E08093BE018093BD019FEF9093FA
:101F1000660510926505940F9093640580934305C0
:101F200080914305660F682B609343058091BC0147
:101F3000813061F41092BC01809143058093BB0015
:101F40008091BC0083FDF8CF85EC01C085EE8093C5
:101F5000BC008091BE018130E1F38091650584175A
:101F600010F440916505A4E4B5E0E9E8F5E080E00F
:101F7000841721F09D9191938F5FFACF1092C20147
:101F80008093C10108951F920F920FB60F921124F2
:101F90002F933F934F935F936F937F938F939F9371
:101FA000AF93BF93EF93FF938091B900887F803602
:101FB00009F49CC068F5883209F45BC090F4803164
:101FC00009F454C038F4882309F4F6C0883009F4C1
:101FD0004DC0F6C0883109F44CC0803209F45DC0B0
:101FE000EFC0803409F468C048F4803309F455C068
:101FF000883309F0E5C080936605D8C0803509F4C0
:102000004FC0883509F45DC0883409F0D9C0D6C006
:10201000883909F4C7C0A8F4883709F467C038F4D0
:10202000883609F463C0803709F460C0C9C08838B5
:1020300009F4B8C0803909F45FC0803809F0C0C025
:102040005BC0803B09F486C038F4803A09F466C06E
:10205000883A09F47FC0B4C0803C09F4A7C0883C2A
:1020600009F4A4C0883B09F48AC0AAC08091430542
:1020700010C09091650580916405981770F5E09106
:10208000650581E08E0F80936505F0E0EC5BFA4F0B
:1020900080818093BB0085EC86C0809366058EC0EE
:1020A000E091650581E08E0F809365058091BB000E
:1020B000F0E0EC5BFA4F80839091650580916405B8
:1020C0006EC0E091650581E08E0F8093650580917B
:1020D000BB00F0E0EC5BFA4F80838091BD01811181
:1020E0006DC081E08093BC0184EA61C083E080938D
:1020F000BE0110924205CFCF80914205803208F098
:1021000051C0E091420581E08E0F8093420580919D
:10211000BB00F0E0EE5DFA4F8083BDCF85EC80938D
:10212000BC001092BE0180914205803230F4E091F3
:102130004205F0E0EE5DFA4F10826091420570E0DA
:10214000E091B801F091B90182E295E00995109211
:10215000420536C084E08093BE01109221051092A2
:102160002005E091BA01F091BB010995809120050D
:10217000811105C081E08093200510920005E09157
:10218000210581E08E0F80932105F0E0E050FB4FA8
:1021900080818093BB009091210580912005981744
:1021A00008F479CF85E88093BC000AC085EC809361
:1021B000BC001092BE0104C0109266050E94EB0D97
:1021C000FF91EF91BF91AF919F918F917F916F910F
:1021D0005F914F913F912F910F900FBE0F901F90E5
:1021E0001895CF92DF92EF92FF920F931F93CF93A8
:1021F000DF93CDB7DEB7EB970FB6F894DEBF0FBE17
:10220000CDBF7E0185E1E80EF11C47E050E06AE0B9
:1022100072E0C7010E9423191CA286E18DA3FFA2D0
:10222000EEA219A618A61DA61CA61FA61EA61BA6D2
:102230001AA683ECC82E81E0D82EF60180811F9269
:102240008F9384EA91E09F938F938E010F5F1F4FCE
:102250001F930F930E94B41FB801CE0184960E9471
:102260001F0949E050E061E072E0C7010E942319B4
:1022700018AA81E089ABFBAAEAAA1DAA1CAA19AE7A
:1022800018AE1BAE1AAE1FAA1EAAF60181811F92BC
:102290008F938FE991E09F938F931F930F930E94E9
:1022A000B41FB801CE01C0960E941F090FB6F89462
:1022B000DEBF0FBECDBFEB960FB6F894DEBF0FBEEC
:1022C000CDBFDF91CF911F910F91FF90EF90DF90E5
:1022D000CF9008953FB7F8948091EE059091EF0567
:1022E000A091F005B091F10526B5A89B05C02F3F40
:1022F00019F00196A11DB11D3FBFBA2FA92F982F2C
:102300008827820F911DA11DB11DBC01CD0142E0A6
:10231000660F771F881F991F4A95D1F708952FB729
:10232000F8946091EA057091EB058091EC0590912D
:10233000ED052FBF08951F920F920FB60F92112433
:102340002F933F938F939F93AF93BF938091EA0511
:102350009091EB05A091EC05B091ED053091E90568
:1023600023E0230F2D3720F40196A11DB11D05C0D8
:1023700026E8230F0296A11DB11D2093E905809345
:10238000EA059093EB05A093EC05B093ED058091E1
:10239000EE059091EF05A091F005B091F105019641
:1023A000A11DB11D8093EE059093EF05A093F0055C
:1023B000B093F105BF91AF919F918F913F912F9174
:1023C0000F900FBE0F901F901895CF93DF93CDB74E
:1023D000DEB7C355D1090FB6F894DEBF0FBECDBF2F
:1023E000789484B5826084BD84B5816084BD85B5F0
:1023F000826085BD85B5816085BD80916E008160FC
:1024000080936E00109281008091810082608093A1
:1024100081008091810081608093810080918000A3
:102420008160809380008091B10084608093B100CE
:102430008091B00081608093B00080917A008460C8
:1024400080937A0080917A00826080937A008091F4
:102450007A00816080937A0080917A00806880930E
:102460007A001092C1001092B1041092B004109240
:10247000AF041092AE041092AD041092AC048DE93A
:1024800091E09093B3048093B2049091A2049631AA
:1024900008F058C02DEB30E03093AD042093AC042D
:1024A0002BE931E03093AF042093AE042CE231E00D
:1024B0003093B1042093B00440916800983058F0F4
:1024C00031E09E3008F430E021E0822F01C0880F17
:1024D0003A95EAF701C084E0842B80936800983035
:1024E00038F09E3040F0963148F020E030E008C0EF
:1024F0002DE630E005C02BE630E002C02CE630E0EF
:102500003093AA042093A904983030F481E001C0EC
:10251000880F9A95EAF70EC0292F30E09E3018F404
:102520002850310902C02E50310981E001C0880FC6
:102530002A95EAF78093AB048091B2049091B3049A
:102540000197F1F78091B0049091B104892B49F182
:10255000E091B601F091B70124E0E639F20709F104
:10256000309739F0A389B4899C9185898095892316
:102570008C938091B4048E7F8093B4041092B50143
:102580001092B40186E994E09093B7018093B6016C
:10259000E091A904F091AA0490818091AB04892B69
:1025A00080836EE571E086E994E00E94B20469E6FA
:1025B00071E086E994E00E94B2040E945F0CC12C95
:1025C000D12C7601B701A60182E00E94640C80E064
:1025D0000E940A0F0E945A0C8FEFC81AD80AE80A04
:1025E000F80A92E3C916D104E104F10459F7C12CA9
:1025F000D12C76010E941319182F0E949E0C6CE6B4
:1026000071E086E994E00E94C704C701B6010E9408
:10261000440A69E771E086E994E00E94C704812FCB
:102620000E940E0A2FEFC21AD20AE20AF20A85E0CD
:10263000C816D104E104F104E9F6C12CD12C7601CD
:10264000C6010E94C20C182F6DE771E086E994E084
:102650000E94C704C701B6010E94440A69E771E0FD
:1026600086E994E00E94C704812F0E940E0A9FEF22
:10267000C91AD90AE90AF90A2AE0C216D104E10402
:10268000F104F1F6C12CD12C76010E941319182FF8
:102690000E949E0C6CE671E086E994E00E94C704FB
:1026A0004AE0C701B6010E94CB0969E771E086E9FB
:1026B00094E00E94C704812F0E940E0A8FEFC81A6F
:1026C000D80AE80AF80A97E1C916D104E104F1042E
:1026D000E1F6C12CD12C7601C6010E94C20C182F44
:1026E0006DE771E086E994E00E94C704C701B60176
:1026F0000E94440A69E771E086E994E00E94C704F9
:10270000812F0E940E0A2FEFC21AD20AE20AF20AA1
:102710008AE0C816D104E104F104F1F6E091F00377
:10272000F091F10382E08083E091EC03F091ED03FE
:102730001082E091EE03F091EF0380E1808310922C
:10274000F803E091F403F091F50386E08083E091D3
:10275000F203F091F303808180618083E091F203C2
:10276000F091F303808188608083E091F203F0911F
:10277000F303808180688083E091F203F091F3039A
:1027800080818F7D80838BE691E00E9421058AE81D
:1027900091E00E9421050E94A70882E991E00E9431
:1027A00021050E94A70861E08EE00E94DC0C61E038
:1027B0008FE00E94DC0C61E08EE00E940D0C60E076
:1027C0008FE00E940D0C8091CA018E7F8E60806127
:1027D0008093CA018FE794E09093940480939304CC
:1027E0001092C2011092C1011092C0011092BF015B
:1027F0001092BE0181E08093BD011092BC0161E0A6
:1028000082E10E940D0C61E083E10E940D0C809139
:10281000B9008E7F8093B9008091B9008D7F80933D
:10282000B90088E48093B80085E48093BC008AEB0B
:102830009DE09093BB018093BA018BEB9DE0909358
:10284000B9018093B80168E68FE794E00E94700FA9
:102850008EE090E00E94C6098FE794E00E94140F7A
:1028600041E050E068E670E08FE794E00E947A0F64
:102870008FE794E00E94CB0D182F68E68FE794E075
:102880000E94700F8EE090E00E94C609612F63766F
:1028900060648FE794E00E944A0E8FE794E00E9404
:1028A000140F89E79EE090930101809300018091CD
:1028B0006900836080936900E89A7E0195E1E90EE2
:1028C000F11CCE0101966C0189E9A82E81E0B82E99
:1028D0009DE9892E91E0992E24EA622E21E0722E44
:1028E0008091CA0182FF00C183EF0E944A0A9C01C5
:1028F000265E3340BC0180E090E02230310518F4C0
:102900000E94881B0EC00E94881B22E538EB4FE214
:102910005BE30E94C51B26E636E64BE352E40E94C9
:102920001D1D6093CE017093CF018093D0019093D1
:10293000D10185EF0E944A0A9C01265E3340BC010A
:1029400080E090E02230310518F40E94881B0EC010
:102950000E94881B20E030E04AEF5AE30E94C51B2A
:1029600020E030E040EC50E40E941D1D6093D20155
:102970007093D3018093D4019093D50149E050E046
:102980006BE771E0C7010E94231929961FAE2997B2
:1029900086E02A968FAF2A972C96FFAEEEAE2C9744
:1029A0002E961FAE1EAE2E9762961FAE1EAE62977B
:1029B00064961FAE1EAE649760961FAE1EAE609703
:1029C0006091CE017091CF018091D0019091D101A1
:1029D000860121E044E00E94A718B601CE01885B81
:1029E0009F4F0E941F0948E050E063E771E0C70174
:1029F0000E9423191CAE87E08DAFFFAEEEAE22968B
:102A00001FAE1EAE229726961FAE1EAE26972896A4
:102A10001FAE1EAE289724961FAE1EAE249760915F
:102A2000D2017091D3018091D4019091D50121E020
:102A300044E00E94A718B601CE01CC960E941F095F
:102A400048E050E06BE671E0C7010E94231918AA24
:102A500089E089ABFBAAEAAA1DAA1CAA19AE18AE86
:102A60001BAE1AAE1FAA1EAA8091D7018F93809128
:102A7000D6018F93BF92AF92DF92CF920E94B41F84
:102A8000B601CE01C0960E941F0949E050E062E6FF
:102A900071E0C7010E9423191CA28AE08DA3FFA246
:102AA000EEA219A618A61DA61CA61FA61EA61BA64A
:102AB0001AA68091D9018F938091D8018F93BF92EC
:102AC000AF92DF92CF920E94B41FB601CE018496DE
:102AD0000E941F098091CA018B7F8093CA010FB6A3
:102AE000F894DEBF0FBECDBF8091CA0181FFA2C0A6
:102AF00068E68FE794E00E94700F82E090E00E9409
:102B0000C6098FE794E00E94140F41E050E068E6A8
:102B100070E08FE794E00E947A0F8FE794E00E94C4
:102B2000CB0D21E0AC014074552786FF20E02093B7
:102B3000CD01282F2F70452B49F085FB992790F95F
:102B40009093CC0182958170880F04C086958695FC
:102B500086958670982F990F990F890F820F809311
:102B6000C30168E68FE794E00E94700F81E090E077
:102B70000E94C6098FE794E00E94140F41E050E0E4
:102B800068E670E08FE794E00E947A0F8FE794E0A8
:102B90000E94CB0D982F92959F708F702AE0929F84
:102BA000800D11248093C40168E68FE794E00E94B1
:102BB000700F80E090E00E94C6098FE794E00E94C9
:102BC000140F41E050E068E670E08FE794E00E9467
:102BD0007A0F8FE794E00E94CB0D982F92959F700B
:102BE0008F702AE0929F800D11248093C50181117E
:102BF00002C00E94F1108091CA0184FF05C08F7E3F
:102C00008093CA010E94F1108091C30181110DC00F
:102C10008091C401811109C08091C501811105C055
:102C20008091CA0188608093CA018091CA018D7F1A
:102C30008093CA018091CA0183FF39C168E68FE79A
:102C400094E00E94700F84E090E00E94C6098FE734
:102C500094E00E94140F41E050E068E670E08FE7D6
:102C600094E00E947A0F8FE794E00E94CB0D982F9A
:102C700092959F708F702AE0929F800D112480930F
:102C8000C60168E68FE794E00E94700F83E090E051
:102C90000E94C6098FE794E00E94140F41E050E0C3
:102CA00068E670E08FE794E00E947A0F8FE794E087
:102CB0000E94CB0D982F92959F708F702AE0929F63
:102CC000800D11248093C70168E68FE794E00E948D
:102CD000700F85E090E00E94C6098FE794E00E94A3
:102CE000140F41E050E068E670E08FE794E00E9446
:102CF0007A0F8FE794E00E94CB0D982F991F9927A8
:102D0000991F9093CB01982F9695969596959E70C6
:102D1000292F220F220F920F8F70890F8093C801E5
:102D200068E68FE794E00E94700F86E090E00E94D2
:102D3000C6098FE794E00E94140F41E050E068E676
:102D400070E08FE794E00E947A0F8FE794E00E9492
:102D5000CB0D982F92959F708F702AE0929F800DD7
:102D600011248093C90147E050E060EA71E0C70197
:102D70000E94231929961FAE299782E02A968FAFC9
:102D80002A972C96FFAEEEAE2C972E961FAE1EAE57
:102D90002E9762961FAE1EAE629764961FAE1EAE51
:102DA000649760961FAE1EAE60978091C9011F9216
:102DB0008F939F928F92DF92CF920E94B41FB601A1
:102DC000CE01885B9F4F0E941F0947E050E069E9F0
:102DD00071E0C7010E9423191CAE83E08DAFFFAEE6
:102DE000EEAE22961FAE1EAE229726961FAE1EAEE8
:102DF000269728961FAE1EAE289724961FAE1EAEAD
:102E000024978091C6011F928F937F926F92DF92D9
:102E1000CF920E94B41FB601CE01CC960E941F092A
:102E20004AE050E06FE871E0C7010E94231918AA38
:102E300015E119ABFBAAEAAA1DAA1CAA19AE18AE85
:102E40001BAE1AAE1FAA1EAA4091C80150E060E056
:102E500070E0CE01C0960E9469094BE050E064E842
:102E600071E0C7010E9423191CA21DA3FFA2EEA2BC
:102E700019A618A61DA61CA61FA61EA61BA61AA646
:102E80004091C70150E060E070E0CE0184960E945E
:102E900069098091CA01877F8093CA0160E08DE053
:102EA0000E940D0C0FB6F894DEBF0FBECDBF0E947E
:102EB000380216CDCF931092E3031092E20388EE0E
:102EC00093E0A0E0B0E08093E4039093E503A09347
:102ED000E603B093E70320E231E03093E10320936F
:102EE000E00325EC30E03093ED032093EC0324EC79
:102EF00030E03093EF032093EE0320EC30E030938A
:102F0000F1032093F00321EC30E03093F30320939E
:102F1000F20322EC30E03093F5032093F40326EC27
:102F200030E03093F7032093F6031092F9031092E8
:102F3000FA031092FB031092FC031092BA04109251
:102F4000BB041092BE041092C00442E050E060E066
:102F500070E04093C1045093C2046093C304709323
:102F6000C4041092D8041092E2041092E10422E307
:102F700031E03093E0042093DF041092E40420E574
:102F800020937D0410927E0410928204109281049A
:102F90008093830490938404A0938504B093860463
:102FA0002EE331E03093800420937F041092990443
:102FB0001092980480939A0490939B04A0939C048D
:102FC000B0939D0480E591E09093970480939604DC
:102FD0001092AD041092AC041092AF041092AE04A3
:102FE0001092B1041092B0041092B3041092B20483
:102FF0006091B4046E7F6D7F6093B40466956170D8
:1030000081E0682787E00E940D0C61E087E00E9464
:10301000DC0CE4EFF1E0E491E093A604E0EEF1E0F3
:10302000E491F0E0EE0FFF1FE153FE4F8591949184
:103030009093A8048093A70460E088E00E94DC0CD1
:103040008091B40481FD04C061E088E00E940D0C11
:1030500088E08093A204E5EFF1E0E491E093A3041B
:10306000E1EEF1E0E491F0E0EE0FFF1FEB53FE4FD5
:10307000859194919093A5048093A404CFB7F8947C
:103080008091FE04811127C0E3EEF1E08491E7EF27
:10309000F1E09491E82FF0E0EE0FFF1FE554FE4FB2
:1030A000A591B491EC91E92321F461E08AE00E94BA
:1030B0000D0C61E08AE00E94DC0C8CB580618CBD57
:1030C0008CB580648CBD61E08DE00E94DC0C61E019
:1030D0008BE00E94DC0C8091FE048F5F8093FE04E5
:1030E000CFBF61E08AE00E94DC0C0E945A0C8CB5D4
:1030F0008C7F8CBD8DB58E7F8DBD8AE080938C04D6
:1031000080E094E090938E0480938D048FEF809301
:103110008B04CF91089580E591E09093970480937C
:1031200096048091B6019091B7018659944071F44C
:10313000E091A904F091AA0490818091AB0480955C
:10314000892380831092B7011092B6010895EF92FF
:103150000F931F93CF93DF93E80147FD02C034E044
:1031600001C034E1042E000C550B57FF03C05195EC
:1031700041955109E32E022F242FAE010E944619DA
:10318000CE01DF91CF911F910F91EF9008958F9213
:103190009F92AF92BF92CF92DF92EF92FF92CF9326
:1031A000DF93EC01688179818A819B8161157105CA
:1031B0008105910521F464E279ED8BE597E02DE13D
:1031C00033EF41E050E00E94831C49015A019B010A
:1031D000AC01A7EAB1E40E94A21C6B017C01ACEE39
:1031E000B4EFA50194010E94B01CDC01CB018C0D51
:1031F0009D1DAE1DBF1DB7FF03C00197A109B048BB
:1032000088839983AA83BB839F77DF91CF91FF90B7
:10321000EF90DF90CF90BF90AF909F908F900895E8
:103220000E94C718089582E191E00E94C71808958E
:10323000A0E0B0E08093120190931301A0931401D9
:10324000B09315010895FB01DC0102C005900D92B9
:1032500041505040D8F70895BB27FB015527AA27B6
:10326000880F991FAA1FA41710F0A41B8395505113
:10327000B9F7A05DAA3308F0A95DA193009779F78B
:10328000B111B1931192CB010C94781BA9E0B0E07D
:10329000ECE4F9E10C94BB1C6A01122FB02E2BE375
:1032A000201720F0FF24F394F00E02C02CE3F22E3E
:1032B0000F2D27E0AE014F5F5F4F0E94A01ABC01A7
:1032C0004981842F8970813031F0E1FC06C0E0FE35
:1032D00006C090E205C09DE203C09BE201C090E001
:1032E0005E2D507143FF3CC0911102C083E001C0CC
:1032F00084E0811718F4212F281B01C020E0511110
:103300000BC0F601822F30E2882319F031938150EF
:10331000FBCFC20ED11C20E0992329F0D6019C934B
:10332000F60131966F01C6010396E2FE0AC03EE443
:10333000D6013C9341E411964C93119712963C931D
:1033400006C03EE6F601308341E641833283FC014C
:10335000322F40E2332309F442C041933150FACF77
:1033600042FF44C0911102C083E001C084E0811794
:1033700018F4212F281B01C020E051110BC0F601C9
:10338000822F30E2882319F031938150FBCFC20E97
:10339000D11C20E0992329F0D6019C93F6013196A7
:1033A0006F01C6010396E2FE0BC039E4D6013C93DF
:1033B0003EE411963C93119736E412963C9307C075
:1033C00039E6F60130833EE6318336E63283FC018E
:1033D000322F40E2332319F041933150FBCFFC01EF
:1033E000E20FF11D10828EEF9FEFA6C021E030E0CA
:1033F000911102C020E030E0161617061CF4FB0104
:10340000319602C0E1E0F0E02E0F3F1FBB2021F01B
:10341000EB2DF0E0319602C0E0E0F0E02E0F3F1F10
:10342000E12FF0E02E173F071CF4121B212F01C0E3
:1034300020E08E2D887159F4F601822F30E2882326
:1034400019F031938150FBCFC20ED11C20E099239B
:1034500029F0D6019C93F60131966F0151110BC0F2
:10346000F601822F90E3882319F091938150FBCFCE
:10347000C20ED11C20E00F2D060F9A81342F30711F
:1034800044FF03C0913309F40150101624F40930AD
:1034900018F008E001C001E0AB0177FF02C040E096
:1034A00050E0FB01E41BF50BA1E0B0E0AC0FBD1F49
:1034B000EA0FFB1F8EE2A82E4B01801A91080B2DFC
:1034C00010E01195019511094F3FBFEF5B0721F403
:1034D000D601AC9211966D01641775072CF0841615
:1034E000950614F4818101C080E341505109319661
:1034F000D60111967D014017510724F0D6018C9317
:103500006701E2CF6417750739F4963320F49533D9
:1035100019F4311101C081E3F6018083F701822F94
:1035200090E2882319F091938150FBCFF701E20FCD
:10353000F11D108280E090E02996ECE00C94D71CFD
:10354000283008F027E03327DA01990F311D87FD75
:10355000916000966105710539F432602E5F3D93EC
:1035600030E32A95E1F708959F3F30F080387105E8
:10357000610509F03C5F3C5F3D93913008F0806845
:10358000911DDF93CF931F930F93FF92EF92192F0B
:10359000987F9695E92F96959695E90FFF27EE531C
:1035A000FF4F99273327EE24FF24A701E701059059
:1035B0000894079428F4360FE71EF81E491F511D82
:1035C000660F771F881F991F0694A1F7059007942F
:1035D00028F4E70EF81E491F561FC11D770F881FDC
:1035E000991F661F0694A1F70590079428F4F80E1A
:1035F000491F561FC71FD11D880F991F661F771FB0
:103600000694A1F70590079420F4490F561FC71F91
:10361000D81F990F661F771F881F0694A9F78491FA
:103620001095177041F0D695C79557954795F79423
:10363000E7941A95C1F7E8E6F0E0689415901591C3
:1036400035916591959105907FE27395E118F10AA6
:10365000430B560BC90BD009C0F7E10CF11E431FF9
:10366000561FC91FD01D7EF4703311F48A95E6CF22
:10367000E894015030F0080F0AF40027021708F40C
:10368000202F2395022F7A3328F079E37D932A9512
:10369000E9F710C07D932A9589F60694979567956A
:1036A000379517951794E118F10A430B560BC90B80
:1036B000D00998F023957E9173957A3308F070E3E2
:1036C0007C932013B8F77E9170617D9330F08395E1
:1036D00071E37D9370E32A95E1F71124EF90FF9059
:1036E0000F911F91CF91DF91992787FD90950895B4
:1036F000DC01FC01672F71917723E1F7329704C059
:103700007C916D9370836291AE17BF07C8F30895E3
:10371000E89409C097FB3EF490958095709561956B
:103720007F4F8F4F9F4F9923A9F0F92F96E9BB2721
:103730009395F695879577956795B795F111F8CF9D
:10374000FAF4BB0F11F460FF1BC06F5F7F4F8F4F08
:103750009F4F16C0882311F096E911C0772321F0FE
:103760009EE8872F762F05C0662371F096E8862F96
:1037700070E060E02AF09A95660F771F881FDAF7ED
:10378000880F9695879597F908950E94D81B0C94F9
:10379000491C0E943B1C38F00E94421C20F09523DB
:1037A00011F00C94321C0C94381C11240C947D1CC8
:1037B0000E945A1C70F3959FC1F3950F50E0551F5E
:1037C000629FF001729FBB27F00DB11D639FAA2776
:1037D000F00DB11DAA1F649F6627B00DA11D661FC5
:1037E000829F2227B00DA11D621F739FB00DA11DE6
:1037F000621F839FA00D611D221F749F3327A00DA0
:10380000611D231F849F600D211D822F762F6A2F3B
:1038100011249F5750409AF0F1F088234AF0EE0FA0
:10382000FF1FBB1F661F771F881F91505040A9F7CD
:103830009E3F510580F00C94321C0C947D1C5F3F20
:10384000E4F3983ED4F3869577956795B795F79509
:10385000E7959F5FC1F7FE2B880F911D9695879581
:1038600097F9089597F99F6780E870E060E0089500
:103870009FEF80EC089500240A9416161706180688
:103880000906089500240A94121613061406050664
:103890000895092E0394000C11F4882352F0BB0FF5
:1038A00040F4BF2B11F460FF04C06F5F7F4F8F4F58
:1038B0009F4F089557FD9058440F551F59F05F3F93
:1038C00071F04795880F97FB991F61F09F3F79F042
:1038D00087950895121613061406551FF2CF4695C4
:1038E000F1DF08C0161617061806991FF1CF869546
:1038F0007105610508940895E894BB27662777272A
:10390000CB0197F90895052E97FB1EF400940E94B1
:103910009A1C57FD07D00E94EC1C07FC03D04EF404
:103920000C949A1C50954095309521953F4F4F4FE0
:103930005F4F089590958095709561957F4F8F4F5B
:103940009F4F08950E940E1DA59F900DB49F900D4E
:10395000A49F800D911D11240895B7FF0C94A21C03
:103960000E94A21C821B930B08952F923F924F92AC
:103970005F926F927F928F929F92AF92BF92CF92FF
:10398000DF92EF92FF920F931F93CF93DF93CDB708
:10399000DEB7CA1BDB0B0FB6F894DEBF0FBECDBF80
:1039A00009942A88398848885F846E847D848C8451
:1039B0009B84AA84B984C884DF80EE80FD800C815A
:1039C0001B81AA81B981CE0FD11D0FB6F894DEBF3D
:1039D0000FBECDBFED010895A1E21A2EAA1BBB1B9D
:1039E000FD010DC0AA1FBB1FEE1FFF1FA217B307CB
:1039F000E407F50720F0A21BB30BE40BF50B661FE1
:103A0000771F881F991F1A9469F7609570958095A4
:103A100090959B01AC01BD01CF010895A29FB0011B
:103A2000B39FC001A39F700D811D1124911DB29FF2
:103A3000700D811D1124911D08955058BB27AA2790
:103A40000E94351D0C94491C0E943B1C38F00E94BA
:103A5000421C20F039F49F3F19F426F40C94381CD2
:103A60000EF4E095E7FB0C94321CE92F0E945A1CDF
:103A700058F3BA17620773078407950720F079F4A3
:103A8000A6F50C947C1C0EF4E0950B2EBA2FA02DFD
:103A90000B01B90190010C01CA01A0011124FF27FB
:103AA000591B99F0593F50F4503E68F11A16F040F6
:103AB000A22F232F342F4427585FF3CF46953795F5
:103AC0002795A795F0405395C9F77EF41F16BA0BBA
:103AD000620B730B840BBAF09150A1F0FF0FBB1F68
:103AE000661F771F881FC2F70EC0BA0F621F731FB1
:103AF000841F48F4879577956795B795F7959E3F0E
:103B000008F0B0CF9395880F08F09927EE0F97959E
:103B10008795089597FB072E16F4009407D077FD3C
:103B200009D00E949E1D07FC05D03EF4909581951A
:103B30009F4F0895709561957F4F0895AA1BBB1BF9
:103B400051E107C0AA1FBB1FA617B70710F0A61B9D
:103B5000B70B881F991F5A95A9F780959095BC01BE
:103B6000CD010895EE0FFF1F0590F491E02D09940B
:103B70000F931F93CF93DF938230910510F482E06F
:103B800090E0E091F405F091F50520E030E0A0E050
:103B9000B0E0309719F140815181028113814817BB
:103BA0005907C8F08417950769F4109731F01296F9
:103BB0000C93129713961C9327C00093F40510934F
:103BC000F50522C02115310519F04217530718F4E5
:103BD0009A01BD01EF01DF01F801DBCF21153105AD
:103BE000F9F0281B390B2430310580F48A819B8140
:103BF0006115710521F0FB019383828304C09093CA
:103C0000F5058093F405FE01329644C0FE01E20FF3
:103C1000F31F8193919322503109398328833AC04D
:103C20002091F2053091F305232B41F420911801E6
:103C3000309119013093F3052093F205209116017C
:103C4000309117012115310541F42DB73EB7409150
:103C50001A0150911B01241B350BE091F205F091E4
:103C6000F305E217F307A0F42E1B3F0B28173907C3
:103C700078F0AC014E5F5F4F2417350748F04E0FC8
:103C80005F1F5093F3054093F2058193919302C017
:103C9000E0E0F0E0CF01DF91CF911F910F91089507
:103CA000CF93DF93009709F481C0FC013297138210
:103CB0001282A091F405B091F505109781F420814E
:103CC0003181820F931F2091F2053091F30528175F
:103CD000390751F5F093F305E093F20567C0ED0164
:103CE00020E030E0CE17DF0740F44A815B819E017F
:103CF00041155105F1F0EA01F5CFD383C28340812C
:103D00005181840F951FC817D90759F4888199816B
:103D1000840F951F0296918380838A819B81938370
:103D200082832115310529F4F093F505E093F4051C
:103D30003DC0E901FB83EA8349915991C40FD51F26
:103D4000EC17FD0761F480819181840F951F029625
:103D5000E90199838883828193819B838A83E0E050
:103D6000F0E012968D919C911397009719F0FD0148
:103D7000DC01F7CF8D919C9111979D012E5F3F4FF4
:103D8000820F931F2091F2053091F3052817390710
:103D900069F4309729F41092F5051092F40502C0E9
:103DA00013821282B093F305A093F205DF91CF91B5
:103DB0000895A0E0B0E0EFEDFEE10C94B91CEC0139
:103DC000009721F4CB010E94B81DB4C0FC01E60F9E
:103DD000F71F9C0122503109E217F30708F4A8C02D
:103DE000D9010D911C91119706171707B0F00530F6
:103DF000110508F49BC0C80104978617970708F4BB
:103E000095C002501109061B170B019311936D9376
:103E10007C93CF010E94501E89C05B01A01AB10A99
:103E20004C01800E911EA091F405B091F505612C16
:103E3000712CE12CF12C109709F446C08D919C91C6
:103E40001197A815B905B1F56C0142E0C40ED11C5B
:103E5000CA14DB0478F14C018A189B08640142E023
:103E6000C40ED11C1296BC9012971396AC91B5E07B
:103E7000CB16D10440F0B282A38391828082D90113
:103E80006D937C9309C00E5F1F4F800F911FF90146
:103E900091838083EB2DFA2FE114F10431F0D701E7
:103EA0001396FC93EE93129741C0F093F505E093BF
:103EB000F4053CC06816790608F43C017D011296B1
:103EC0000D90BC91A02DB7CF8091F2059091F30594
:103ED00088169906E1F466167706C8F480911601F3
:103EE00090911701009741F48DB79EB740911A0148
:103EF00050911B01841B950BE817F907C8F4F09348
:103F0000F305E093F205F901718360830FC0CB01E3
:103F10000E94B81D7C01009759F0A801BE010E94C3
:103F2000A41FCE010E94501EC70104C0CE0102C0D2
:103F300080E090E0CDB7DEB7EEE00C94D51C81E0D8
:103F400090E0F8940C946722FB01DC0102C0019020
:103F50000D9241505040D8F70895FB01DC010190CB
:103F60000D920020E1F70895AEE0B0E0EAEBFFE14A
:103F70000C94C31C0D891E8986E08C831A830983E7
:103F80008FEF9FE79E838D83AE01475E5F4F6F8902
:103F9000788DCE0101960E94D61FEF81F885E00F43
:103FA000F11F10822E96E4E00C94DF1CABE0B0E031
:103FB000ECEDFFE10C94B51C6C017B018A01FC0166
:103FC00017821682838181FFCCC1CE0101963C010C
:103FD000F6019381F70193FD859193FF81917F0114
:103FE000882309F4BAC1853239F493FD859193FF92
:103FF00081917F01853229F4B60190E00E94CD21A4
:10400000E7CF912C212C312CFFE1F315D8F08B3226
:1040100079F038F4803279F08332A1F4232D2061D5
:104020001DC08D3261F0803369F4232D216016C0EC
:10403000832D8260382EE32DE4603E2E2AC0F32DBE
:10404000F8601DC037FC2DC020ED280F2A3040F04D
:104050008E32B9F436FC81C1232D2064322E19C072
:1040600036FE06C08AE0989E200D1124922E11C0C3
:10407000EAE02E9E200D1124222EF32DF0623F2E19
:1040800008C08C3621F4832D8068382E02C0883613
:1040900041F4F70193FD859193FF81917F01811197
:1040A000B3CF982F9F7D9554933028F40C5F1F4F0A
:1040B0009FE399830DC0833631F0833771F08335E8
:1040C00009F059C021C0F801808189830E5F1F4F1C
:1040D00088248394912C530113C02801F2E04F0EE1
:1040E000511CF801A080B18036FE03C0692D70E03C
:1040F00002C06FEF7FEFC5010E94C2214C01820117
:10410000F32DFF773F2E16C0280122E0420E511CEE
:10411000F801A080B18036FE03C0692D70E002C0B6
:104120006FEF7FEFC5010E94B7214C01F32DF068BE
:104130003F2E820133FC1BC0822D90E08816990629
:10414000B0F4B60180E290E00E94CD212A94F4CF31
:10415000F50137FC859137FE81915F01B60190E052
:104160000E94CD2121102A9421E0821A9108811405
:10417000910471F7E8C0843611F0893641F5F801F1
:1041800037FE07C060817181828193810C5F1F4F70
:1041900008C060817181072E000C880B990B0E5F9F
:1041A0001F4FF32DFF763F2E97FF09C09095809506
:1041B000709561957F4F8F4F9F4FF0683F2E2AE09B
:1041C00030E0A3010E940922882E861845C0853759
:1041D00031F4232D2F7EB22E2AE030E025C0932D1E
:1041E000997FB92E8F36C1F018F4883579F0B5C0B3
:1041F000803719F0883721F0B0C0E92FE061BE2E7A
:10420000B4FE0DC0FB2DF460BF2E09C034FE0AC001
:10421000292F2660B22E06C028E030E005C020E13C
:1042200030E002C020E132E0F801B7FE07C0608153
:104230007181828193810C5F1F4F06C06081718103
:1042400080E090E00E5F1F4FA3010E940922882E9C
:104250008618FB2DFF773F2E36FE0DC0232D2E7FB7
:10426000A22E891458F434FE0BC032FC09C0832DF1
:104270008E7EA82E05C0B82CA32C03C0B82C01C07C
:10428000B92CA4FE0FC0FE01E80DF11D8081803322
:1042900021F49A2D997EA92E09C0A2FE06C0B394DE
:1042A000B39404C08A2D867809F0B394A3FC11C09E
:1042B000A0FE06C0B21488F4280C922C9B180EC0E5
:1042C000B21460F4B60180E290E00E94CD21B39474
:1042D000F7CFB21418F42B1802C0982C212CA4FE8E
:1042E00010C0B60180E390E00E94CD21A2FE17C06D
:1042F000A1FC03C088E790E002C088E590E0B60129
:104300000CC08A2D867859F0A1FE02C08BE201C054
:1043100080E2A7FC8DE2B60190E00E94CD218914D5
:1043200038F4B60180E390E00E94CD219A94F7CF53
:104330008A94F301E80DF11D8081B60190E00E949E
:10434000CD218110F5CF222009F442CEB60180E2C2
:1043500090E00E94CD212A94F6CFF60186819781C4
:1043600002C08FEF9FEF2B96E2E10C94D11CFC0171
:104370000590615070400110D8F7809590958E0F90
:104380009F1F0895FC016150704001900110D8F703
:10439000809590958E0F9F1F08950F931F93CF9335
:1043A000DF93FB01238121FD03C08FEF9FEF2CC022
:1043B00022FF16C046815781248135814217530759
:1043C00044F4A081B1819D012F5F3F4F3183208351
:1043D0008C93268137812F5F3F4F3783268314C00C
:1043E0008B01EC01FB010084F185E02D0995892BFF
:1043F000E1F6D80116968D919C9117970196179624
:104400009C938E931697CE01DF91CF911F910F91C0
:104410000895FA01AA27283051F1203181F1E8945A
:104420006F936E7F6E5F7F4F8F4F9F4FAF4FB1E0A7
:104430003ED0B4E03CD0670F781F891F9A1FA11DA2
:10444000680F791F8A1F911DA11D6A0F711D811DA3
:10445000911DA11D20D009F468943F912AE0269F68
:1044600011243019305D3193DEF6CF010895462FC7
:104470004770405D4193B3E00FD0C9F7F6CF462FA8
:104480004F70405D4A3318F0495D31FD4052419311
:1044900002D0A9F7EACFB4E0A695979587957795CE
:1044A0006795BA95C9F700976105710508959B0155
:1044B000AC010A2E06945795479537952795BA95DE
:1044C000C9F7620F731F841F951FA01D089511E087
:1044D000CAE0D1E004C0FE010E94B21D2196CB309B
:0844E000D107C9F7F894FFCFE2
:1044E80035013501FFFFFFFF00000A0014001E0020
:1044F8002800010000000000F60580000000000010
:10450800C90136016001160291016F0183010000A3
:10451800000069063601E80DE70D000000004A0EAC
:104528001D0EE80D300DDF0DCB0DBC0D0000000099
:10453800310D3601E80D300D810D990D180D5374AC
:104548006172742070726F67000D0A005352414DFA
:104558002077726974653A2000202F200053524159
:104568004D2020726561643A2000626B636D643D82
:1045780031007061676520300025346400323025D1
:10458800303264002564002E7478743D22002E7643
:04459800616C3D0015
:00000001FF
