:100000000C9458000C9480000C9480000C94D2083E
:100010000C94D2080C94D2080C9480000C948000AC
:100020000C9480000C9480000C9480000C94800050
:100030000C9480000C9480000C9480000C94800040
:100040000C94170E0C9480000C94870E0C94610E87
:100050000C9480000C9480000C9480000C94800020
:100060000C94DC080C94800000000000250028009F
:100070002B00040404040404040402020202020229
:10008000030303030303010204081020408001025C
:1000900004081020010204081020000000080002DB
:1000A00001000003040700000000000000007F10B2
:1000B00011241FBECFEFD8E0DEBFCDBF12E0A0E01D
:1000C000B1E0ECEDF1E302C005900D92A03AB1076A
:1000D000D9F727E0A0EAB2E001C01D92A23CB20726
:1000E000E1F710E0C8E5D0E004C02197FE010E94CE
:1000F0003914C735D107C9F70E94B90E0C94EC1812
:100100000C940000FC01538D448D252F30E0842F8A
:1001100090E0821B930B541710F0CF96089501972F
:100120000895FC01918D828D981761F0828DDF0119
:10013000A80FB11D5D968C91928D9F5F9F73928FDA
:1001400090E008958FEF9FEF0895FC01918D828DCF
:10015000981731F0828DE80FF11D858D90E008959C
:100160008FEF9FEF0895FC01918D228D892F90E0F4
:10017000805C9F4F821B91098F739927089580E0BF
:1001800090E0892B29F00E94C40B81110C9400008F
:1001900008958EBD00000DB407FEFDCF8EB5089505
:1001A0008FEF0C94C9000895E091FB048091FA044C
:1001B000E81730F4F0E0E450FB4F808190E00895C0
:1001C0008FEF9FEF08959091FB048091FA049817A8
:1001D00050F4E92FF0E0E450FB4F208130E09F5FC6
:1001E0009093FB0402C02FEF3FEFC9010895809167
:1001F000FA0490E02091FB04821B91090895089570
:1002000080E090E0089585ED8093BC008091BC0073
:1002100084FDFCCF1092420508954091C202262F22
:1002200030E0240F311D21323105DCF420914205EC
:100230002430C9F4FC0180E090E0861758F4309136
:10024000C2022191DC01A056BD4FA30FB11D2C931A
:100250000196F3CF8091C202680F6093C20280E0E2
:10026000089581E0089582E00895CF92DF92EF92A1
:10027000FF920F931F93CF93DF937C01262F972F2D
:100280008A0180916505882391F0C62FD72F6E01D2
:10029000C40ED51ECC15DD0571F06991D701ED9125
:1002A000FC910190F081E02DC7010995F3CF642FF7
:1002B000822F0E940D01C801DF91CF911F910F91F4
:1002C000FF90EF90DF90CF900895CF93DF931F9230
:1002D000CDB7DEB76983209165052223D1F0209147
:1002E0006305203240F021E030E0FC0133832283BB
:1002F00080E090E015C080916405E82FF0E0ED5BB0
:10030000FA4F998190838F5F809364058093630592
:1003100005C061E0CE0101960E940D0181E090E0F0
:100320000F90DF91CF9108958091F10481608093C7
:10033000F10408958091F10481608093F10408959F
:1003400008950F931F93CF93DF93EB010E94B80C96
:100350008B010E94D0008F3F49F00E94B80C601BB7
:10036000710B6C177D07A8F380E001C081E0DF917D
:10037000CF911F910F91089561E0FC0184810E944B
:100380006C0C8091E90281111092E9020895CF93DB
:10039000DF93EC018E81882389F08F8198859C0101
:1003A0002F5F3F4F38872F838230924018F40E948E
:1003B000D000F3CFCE010E94BC011E82DF91CF910D
:1003C0000895CF92DF92FF920F931F93CF93DF9305
:1003D00000D000D0CDB7DEB76C01F62E29833A836A
:1003E0004B835C830E94C7018091E90229813A8195
:1003F0004B815C81811109C081E08093E902909179
:100400002506809126069CBD8DBD60E0F6018481A5
:1004100029833A834B835C830E946C0C6CE271E00D
:10042000C6010E94A1018F2D80640E94C90008E1CD
:1004300010E05C814B813A812981DA01C901002EEB
:1004400004C0B695A795979587950A94D2F7298306
:100450003A834B835C830E94C900085011092981AB
:100460003A814B815C81083FFFEF1F0731F7FF2086
:1004700029F088E0F81204C087E803C085E901C0CC
:100480008FEF0E94C90010E00E94D000F601828721
:1004900087FF04C01F3F11F01F5FF6CF0F900F9032
:1004A0000F900F90DF91CF911F910F91FF90DF90F0
:1004B000CF900895EF92FF920F931F93CF93DF9306
:1004C000EC017901411551056105710511F482E1D5
:1004D0003CC08B85833039F089E0440F551F661F7F
:1004E000771F8A95D1F79A01AB0168E1CE010E948E
:1004F000E101882311F084E028C08EEF0E94C9003A
:1005000087018EEFF81AF80181918F010E94C900CE
:100510000E151F05C1F78FEF0E94C9008FEF0E94D3
:10052000C9000E94D0008A878F71853031F081E147
:100530008D83CE010E94BC0109C068E572E0CE0146
:100540000E94A101811107C085E18D83CE010E9427
:10055000BC0180E013C020E030E0A9016DE0CE01D5
:100560000E94E101811104C00E94D000882311F093
:1005700084E1EBCFCE010E94BC0181E0DF91CF91FD
:100580001F910F91FF90EF900895CF93DF9380918B
:10059000EC02882399F1C091EA02D091EB024091DC
:1005A000000150910101609102017091030121EF5E
:1005B00032E0CE010E945A02811102C080E01FC0C9
:1005C0004091ED025091EE026091EF027091F002C5
:1005D000411551056105710579F021EF32E0CE0139
:1005E0000E945A02882351F31092ED021092EE02FB
:1005F0001092EF021092F0021092EC0281E0DF9173
:10060000CF910895BF92CF92DF92EF92FF920F9316
:100610001F93CF93DF936B017C01B42E8091000177
:1006200090910101A0910201B09103018C159D05EB
:10063000AE05BF0509F476C00E94C502882309F4FF
:1006400078C0C091EA02D091EB028E81882369F0D4
:1006500088819981AA81BB81C816D906EA06FB0662
:1006600021F48F819885892BB1F1C882D982EA82E1
:10067000FB828B85A7019601833039F089E0220F38
:10068000331F441F551F8A95D1F761E1CE010E94A7
:10069000E101882319F083E08D8337C00E94B80CF4
:1006A0008B010E94D0008A878F3F49F40E94B80CCA
:1006B000601B710B6D327140A0F38FE003C08E3F61
:1006C00031F08DE08D83CE010E94BC011EC01886E2
:1006D0001F8281E08E8301EF12E00E94D000F801BA
:1006E00081938F01F4E0013F1F07B9F78F8198854F
:1006F0009E5F98878F832985222319F08115924068
:1007000048F0CE010E94C70105C0CE010E94BC0185
:1007100080E00FC0C0920001D0920101E09202017E
:10072000F09203018091EC02482F4B294093EC0298
:1007300081E0DF91CF911F910F91FF90EF90DF90BB
:10074000CF90BF9008954F925F926F927F928F9259
:100750009F92AF92BF92CF92DF92EF92FF920F9350
:100760001F93CF93DF93EC016A017B0128013901CC
:10077000423051056105710510F480E073C0898530
:100780009A85AB85BC850196A11DB11D841795077F
:10079000A607B70790F38B889C88AD88BE888F89A1
:1007A000803129F4BB27AF2D9E2D8D2D09C0DB0193
:1007B000CA0147E0B695A795979587954A95D1F7D1
:1007C000880E991EAA1EBB1E809100019091010106
:1007D000A0910201B091030188169906AA06BB06F2
:1007E00079F48F898031A1F4DD24EE24FF24C60141
:1007F000880F991FFC01EF50FD4F5182408219C0B4
:1008000040E0C501B4010E9402038111EACFB5CFD7
:10081000E894C7F8DD24EE24FF24C601880F991F51
:10082000880F991FFC01EF50FD4F40825182628278
:1008300073828091EC0281608093EC028A8982301D
:1008400080F08D819E81AF81B885880E991EAA1E89
:10085000BB1E8092ED029092EE02A092EF02B09247
:10086000F00281E0DF91CF911F910F91FF90EF9007
:10087000DF90CF90BF90AF909F908F907F906F90C0
:100880005F904F9008958F929F92AF92BF92CF92B8
:10089000DF92EF92FF920F931F93CF93DF93FC01B0
:1008A00081859285A385B4850196A11DB11D84170C
:1008B0009507A607B70710F480E05CC08389948988
:1008C000A589B689C789C03129F4852E962EA72E11
:1008D000BB2409C04A015B01C7E0B694A794979472
:1008E0008794CA95D1F7E9016A017B018F01BC01A8
:1008F000CD01680D791D8A1D9B1D8090000190908F
:100900000101A0900201B0900301681579058A05E4
:100910009B0599F4F80187898031A9F4B701A601F4
:10092000552766277727440F551FFA01EF50FD4FD3
:1009300080819181A0E0B0E018C040E00E940203F5
:100940008111E8CFB9CFB701A6014F7755276627A8
:100950007727440F551F440F551FFA01EF50FD4FE5
:1009600080819181A281B381BF7088839983AA839A
:10097000BB8381E0DF91CF911F910F91FF90EF90AA
:10098000DF90CF90BF90AF909F908F9008953F924F
:100990004F925F926F927F928F929F92AF92BF928F
:1009A000CF92DF92EF92FF920F931F93CF93DF933B
:1009B000CDB7DEB72C970FB6F894DEBF0FBECDBF14
:1009C0005C01DC015B968D909C905C971696CD90B7
:1009D000DD90ED90FC901997C114D104E104F1046D
:1009E00039F0BFEFCB1ADB0AEB0AFB0A312C07C048
:1009F000F401C080D180E280F38033243394F40189
:100A000081859285A385B4859C01AD012F5F3F4F01
:100A10004F4F5F4F29873A874B875C872601370105
:100A20001D821E821F821886F40181859285A3850E
:100A3000B4852D813E814F815885281739074A0793
:100A40005B0708F063C089859A85AB85BC858C15EA
:100A50009D05AE05BF0550F482E0C82ED12CE12CD7
:100A6000F12C92E0492E512C612C712C9E012F5FAC
:100A70003F4FB701A601C4010E944304882309F433
:100A800045C089819A81AB81BC81892B8A2B8B2BB4
:100A900041F0260137019FEF491A590A690A790A7C
:100AA00005C0C414D504E604F70491F02D813E81FD
:100AB0004F8158852F5F3F4F4F4F5F4F2D833E83B0
:100AC0004F8358873FEFC31AD30AE30AF30AACCF28
:100AD0000FEF1FEF2FEF3FE0B301A201C4010E940F
:100AE000A303882399F0D50116964D915D916D91E0
:100AF0007C911997411551056105710549F09301E4
:100B00008201C4010E94A303811102C080E02AC0B7
:100B1000D50116964D925D926D927C921997332075
:100B200051F0D301C2010196A11DB11DF4018083D2
:100B30009183A283B383F5018789908DA18DB28DB6
:100B4000892B8A2B8B2B69F4D50157964D925D9298
:100B50006D927C925A9714968C9114978068149693
:100B60008C9381E02C960FB6F894DEBF0FBECDBFFC
:100B7000DF91CF911F910F91FF90EF90DF90CF9079
:100B8000BF90AF909F908F907F906F905F904F90AD
:100B90003F9008954F925F926F927F928F929F92B3
:100BA000AF92BF92EF92FF920F931F93CF93DF9379
:100BB00000D000D01F92CDB7DEB78C016D83DC0171
:100BC00015968C911597813009F057C014968C9129
:100BD00081FF53C05AC0038CF48DE02D258530E091
:100BE000275F3F4F2A013B01B1E04B1A51086108D2
:100BF0007108022E04C076946794579447940A941F
:100C0000D2F7D501C4010197A109B10904C0B69575
:100C1000A795979587952A95D2F784159505A605EA
:100C2000B70508F070C0F8014789508D618D728D4D
:100C300046835783608771872C013D017801E6E088
:100C4000EE0EF11CD801411451046104710409F441
:100C500064C016964D915D916D917C9119979701A5
:100C60005B968D919C915C970E944304B1E04B1A76
:100C70005108610871088111E5CF81E090E0F80129
:100C80009383828380E090E04FC182FF0EC0F80121
:100C9000428553856485758583889488A588B68840
:100CA000481559056A057B05F1F4D8011A964D914E
:100CB0005D916D917C911D975B968D919C915C9758
:100CC000FC0174807A944A015B0129E0B694A794F0
:100CD000979487942A95D1F778207A01F1E0FF2242
:100CE000772011F164C081149104A104B10409F0CA
:100CF00072CF1682178210861186F801128613862B
:100D000014861586D2CF452B462B472B09F48BCF63
:100D100084199509A609B7098FCF1A968D929D92CD
:100D2000AD92BC921D97C1CFE114F10409F03FC010
:100D3000F80146815781608571854115510561052E
:100D4000710549F48789908DA18DB28D0097A10519
:100D5000B10541F521C09E012F5F3F4F0E94430422
:100D6000882309F48FCF89819A81AB81BC81F801F6
:100D7000238D348DF9012789203129F048EF5FEF69
:100D80006FEF7FE004C048EF5FEF60E070E0841732
:100D90009507A607B70730F0C8010E94C704811164
:100DA00006C06BCFF80186839783A087B187D801EF
:100DB0005B96ED91FC915C9716968D909D90AD9011
:100DC000BC901997B2E08B1A9108A108B10805846C
:100DD00004C0880C991CAA1CBB1C0A94D2F78685F7
:100DE0009785A089B189880E991EAA1EBB1E870C03
:100DF000911CA11CB11CE114F10409F5F801428514
:100E000053856485758583899489A589B689481732
:100E100059076A077B0798F00E94C502882309F4E6
:100E20002CCF8092000190920101A0920201B09219
:100E300003018091EC0281608093EC0208C041E0E4
:100E4000C501B4010E940203882309F416CFF701FB
:100E5000EF50FD4F8D818083F80182859385A485B5
:100E6000B5850196A11DB11D82879387A487B5879B
:100E70004389548965897689481759076A077B072A
:100E800038F4838B948BA58BB68B848180688483A4
:100E9000D80114968C9183FD03C081E090E044C09A
:100EA000F8019581992309F4E8CE87FF38C066855B
:100EB00077858089918941E00E940203882309F4A3
:100EC000DCCED8015296EC91B0E2EB9F9001112458
:100ED000D901AF50BD4F109709F4CFCEF8018581ED
:100EE000823050F443895489658976895C964D93A4
:100EF0005D936D937C935F97F8018789908DA18DA9
:100F0000B28DF901EF50FD4F938F828FB58BA48B7B
:100F1000D80114968C9114978F7714968C930E9415
:100F2000C5028111BACFA9CE0F900F900F900F90EC
:100F30000F90DF91CF911F910F91FF90EF90BF9095
:100F4000AF909F908F907F906F905F904F9008959B
:100F50000F931F93CF93DF93CDB7DEB768970FB68C
:100F6000F894DEBF0FBECDBF8091F1048160809305
:100F7000F104CE0145960E94840D8D898093F7047B
:100F80001F928F9386E491E09F938F938E010F5F62
:100F90001F4F1F930F930E944B16C8010E94440DD0
:100FA0000F900F900F900F900F900F9068960FB6C4
:100FB000F894DEBF0FBECDBFDF91CF911F910F918F
:100FC00008950F931F93CF93DF93CDB7DEB7689744
:100FD0000FB6F894DEBF0FBECDBF8091F1048160E3
:100FE0008093F104CE0145960E94840D8D898093F3
:100FF000F7041F928F9386E491E09F938F938E0165
:101000000F5F1F4F1F930F930E944B16C8010E9442
:10101000440D0F900F900F900F900F900F906896C7
:101020000FB6F894DEBF0FBECDBFDF91CF911F91F9
:101030000F910895FC01848DDF01A80FB11DA35A03
:10104000BF4F2C91848D90E001968F739927848FE8
:10105000A689B7892C93A089B1898C9180648C93DF
:10106000938D848D981306C00288F389E02D8081CA
:101070008F7D80830895EF92FF920F931F93CF93FC
:10108000DF93EC0181E0888F9B8D8C8D981305C0D8
:10109000E889F989808185FD24C0F62E0B8D10E04A
:1010A0000F5F1F4F0F731127E02E8C8DE8120CC0BD
:1010B0000FB607FCFACFE889F989808185FFF5CF63
:1010C000CE010E941A08F1CF8B8DFE01E80FF11DB1
:1010D000E35AFF4FF0820B8FEA89FB89808180629F
:1010E00007C0EE89FF896083E889F989808180647F
:1010F000808381E090E0DF91CF911F910F91FF906D
:10110000EF900895CF93DF93EC01888D8823C9F089
:10111000EA89FB89808185FD05C0A889B9898C9100
:1011200086FD0FC00FB607FCF5CF808185FFF2CF9B
:10113000A889B9898C9185FFEDCFCE010E941A084C
:10114000E7CFDF91CF910895CF93DF93EC0188E84B
:1011500095E00E94B300892B29F088E895E00E9471
:101160009100F5CF209769F0FE0101900020E9F78A
:101170003197AF014C1B5D0BBE0188E895E00E94E2
:10118000660A6FEF88E895E00E943B086FEF88E8F9
:1011900095E00E943B086FEF88E895E0DF91CF91E2
:1011A0000C943B081F920F920FB60F9211240F90D0
:1011B0000FBE0F901F9018951F920F920FB60F92AF
:1011C00011242F933F934F935F936F937F938F934C
:1011D0009F93AF93BF93EF93FF938091B900887F64
:1011E000803609F49CC068F5883209F45BC090F43D
:1011F000803109F454C038F4882309F4F6C08830EB
:1012000009F44DC0F6C0883109F44CC0803209F4AD
:101210005DC0EFC0803409F468C048F4803309F43D
:1012200055C0883309F0E5C080934005D8C08035AB
:1012300009F44FC0883509F45DC0883409F0D9C07D
:10124000D6C0883909F4C7C0A8F4883709F467C044
:1012500038F4883609F463C0803709F460C0C9C027
:10126000883809F4B8C0803909F45FC0803809F0C3
:10127000C0C05BC0803B09F486C038F4803A09F4F2
:1012800066C0883A09F47FC0B4C0803C09F4A7C0A6
:10129000883C09F4A4C0883B09F48AC0AAC08091A4
:1012A0001D0510C090913F0580913E05981770F57F
:1012B000E0913F0581E08E0F80933F05F0E0E25E14
:1012C000FA4F80818093BB0085EC86C080934005F7
:1012D0008EC0E0913F0581E08E0F80933F058091A5
:1012E000BB00F0E0E25EFA4F808390913F05809171
:1012F0003E056EC0E0913F0581E08E0F80933F0573
:101300008091BB00F0E0E25EFA4F8083809141055E
:1013100081116DC081E080931C0584EA61C083E087
:10132000809342051092E602CFCF8091E602803290
:1013300008F051C0E091E60281E08E0F8093E60252
:101340008091BB00F0E0EA53FD4F8083BDCF85EC78
:101350008093BC00109242058091E602803230F406
:10136000E091E602F0E0EA53FD4F10826091E60260
:1013700070E0E091C402F091C50286EC92E009951C
:101380001092E60236C084E0809342051092C302B8
:101390001092C202E091C002F091C10209958091C1
:1013A000C202811105C081E08093C2021092A002A6
:1013B000E091C30281E08E0F8093C302F0E0E0561B
:1013C000FD4F80818093BB009091C3028091C20247
:1013D000981708F479CF85E88093BC000AC085ECA3
:1013E0008093BC001092420504C0109240050E94F8
:1013F0000301FF91EF91BF91AF919F918F917F91E9
:101400006F915F914F913F912F910F900FBE0F9071
:101410001F9018953FB7F8948091830590918405AB
:10142000A0918505B091860526B5A89B05C02F3FE4
:1014300019F00196A11DB11D3FBFBA2FA92F982FFA
:101440008827820F911DA11DB11DBC01CD0142E075
:10145000660F771F881F991F4A95D1F708958F92BD
:101460009F92AF92BF92CF92DF92EF92FF920E9433
:101470000A0A4B015C018AE0C82ED12CE12CF12C28
:101480000E940A0ADC01CB0188199909AA09BB0943
:10149000883E9340A105B10558F021E0C21AD10859
:1014A000E108F10888EE880E83E0981EA11CB11CAB
:1014B000C114D104E104F10419F7FF90EF90DF901B
:1014C000CF90BF90AF909F908F900895CF92DF9272
:1014D000EF92FF920F931F93CF93DF936C017A01EA
:1014E0008B01C0E0D0E0CE15DF0589F0D8016D9109
:1014F0008D01D601ED91FC910190F081E02DC601A6
:101500000995892B11F47E0102C02196ECCFC70109
:10151000DF91CF911F910F91FF90EF90DF90CF90CF
:1015200008958F929F92AF92BF92CF92DF92EF92E7
:10153000FF920F931F93CF93DF9391E090936505F4
:1015400090E4909387051092640510926305A09132
:101550008706B0918806ED91FC9111970190F0817A
:10156000E02D682FCD010995909163058091870545
:10157000913208F046C0209142052111FCCF22E0B3
:101580002093420521E0209341052FEF2093400551
:1015900010923F0590933E05A3E4B5E04EE155E07F
:1015A000FA012E2F241B291718F42D912193F9CF1E
:1015B00010921D0590911D05880F892B80931D05A4
:1015C00080911C05813061F410921C0580911D05ED
:1015D0008093BB008091BC0083FDF8CF85EC01C0F7
:1015E00085EE8093BC00809142058230E1F38091CA
:1015F00040058F3F31F080914005803211F080919D
:101600004005109264051092630510926505CAE0CA
:10161000D1E0DD24DA94A2E0CA2EB5EEBB2E15ECA3
:10162000A12E0CEF14E00E942F0A80914205811137
:10163000FCCFD0934205D0934105D0924005109243
:101640003F05C0923E05D0931D0590911D05906801
:1016500090931D0580911C05813069F410921C0542
:1016600080911D058093BB008091BC0083FDF8CF65
:10167000A092BC0002C0B092BC00809142058130B3
:10168000E1F380913F05833018F490913F0501C04C
:1016900093E0AEE1B5E0ECEFF4E08E2F801B89170C
:1016A00018F48D918193F9CF1092FB049093FA0472
:1016B000C15009F457C0933009F0B5CF8091870627
:1016C00090918806DC01ED91FC910284F385E02D78
:1016D0000995D82F8091870690918806DC01ED91BD
:1016E000FC910284F385E02D0995C82F809187062F
:1016F00090918806DC01ED91FC910284F385E02D48
:101700000995FD2EE12C97012C2BA90160E070E0DA
:10171000762F652F542F4427482B87E190E0C12C6A
:10172000E0E8DE2EE8E9EE2EF12C4A015B01082EFE
:1017300004C0B694A794979487940A94D2F780FE35
:1017400004C04C255D256E257F25F694E794D7943B
:10175000C79401978730910541F7411106C0C9012F
:101760008C7F05C086EE93E002C087EE93E0DF91A8
:10177000CF911F910F91FF90EF90DF90CF90BF908E
:10178000AF909F908F90089588E895E00E94B300F5
:1017900021E0892B09F420E0822F08950E9436165B
:1017A0000F931F93CF93DF93EC018881998100976A
:1017B00029F02A813B812617370788F48B016F5F58
:1017C0007F4F0E946C15009761F0998388831B837B
:1017D0000A832C813D81232B11F4FC01108281E0CE
:1017E00001C080E0DF91CF911F910F910895EF929A
:1017F000FF920F931F93CF93DF936115710511F43F
:1018000080E023C0FB0101900020E9F73197E61B3F
:10181000F70BDC0114960D911C9115973097A1F0F0
:101820007B01EC010E0F1F1FB8010E94D00B882313
:1018300039F3288139818C819D81B701820F931FF3
:101840000E9444161D830C8381E0DF91CF911F918C
:101850000F91FF90EF900895EF92FF920F931F93D7
:10186000CF93DF93EC01198218821B821A821D82AA
:101870001C826115710549F18B01FB01019000206B
:10188000E9F731977F01E61AF70AB7010E94D00BFA
:101890002881398181110DC02115310519F0C90147
:1018A0000E94D414198218821D821C821B821A8203
:1018B0000CC0FD82EC82B801C901DF91CF911F916C
:1018C0000F91FF90EF900C944416DF91CF911F91F0
:1018D0000F91FF90EF90089590E0FC01E656FF4FC6
:1018E0003491FC01EA57FF4F2491FC01EE58FF4F61
:1018F000E491EE2309F43BC0332339F1333091F006
:1019000038F43130A9F0323001F584B58F7D12C042
:10191000373091F03830A1F03430B9F48091800044
:101920008F7D03C0809180008F77809380000DC0F1
:1019300084B58F7784BD09C08091B0008F7703C0D4
:101940008091B0008F7D8093B000F0E0EE0FFF1F1C
:10195000E859FF4FA591B4918FB7F894EC916111BC
:1019600003C020952E2301C02E2B2C938FBF0895EA
:101970002FB7F89460917F05709180058091810563
:10198000909182052FBF08950F931F930E94B80C6A
:1019900060939005709391058093920590939305C1
:1019A000E0918805F09189050284F385E02D88E8AF
:1019B00095E0099597FF1FC00E94B80C0091900513
:1019C000109191052091920530919305DC01CB0196
:1019D000801B910BA20BB30B00918C0510918D0510
:1019E00020918E0530918F0580179107A207B307CC
:1019F000B8F28FEF9FEF1F910F910895EF92FF9232
:101A00000F931F93CF93DF9300D000D0CDB7DEB7F5
:101A100019821A821B821C8284E690E0A0E0B0E06A
:101A200080938C0590938D05A0938E05B0938F05C0
:101A30008E010F5F1F4F7E0185E0E80EF11C0E94B2
:101A4000C40C97FF04C08981813091F407C0F8016C
:101A500081938F01EE15FF0591F7F5CF8A818F3FB6
:101A600039F48B818F3F21F481E09C819F3F09F005
:101A700080E00F900F900F900F90DF91CF911F910A
:101A80000F91FF90EF9008950F931F93CF93DF93E3
:101A900000D000D000D0CDB7DEB78C0164E571E096
:101AA000CE0101960E942C0C609171067091720615
:101AB000CE0101960E94F70B69E471E0CE01019618
:101AC0000E94F70BB801CE0101960E94F70B6EE45D
:101AD00071E0CE0101960E94F70B89819A810E94E4
:101AE000A4080E94FE0C182F89819A810E94D414A8
:101AF000812F26960FB6F894DEBF0FBECDBFDF91C3
:101B0000CF911F910F910895CF92DF92EF92FF92A4
:101B10000F931F93CF93DF93CDB7DEB72E970FB6FA
:101B2000F894DEBF0FBECDBF8C0160E571E0CE0141
:101B300009960E942C0C60917D0670917E06CE0164
:101B400009960E94F70B65E571E0CE0109960E94A7
:101B5000F70B89859A850E94A408FE01319688E0DA
:101B6000DF011D928A95E9F70115110511F410E0C6
:101B700047C084E690E0A0E0B0E080938C059093AD
:101B80008D05A0938E05B0938F057F01C12CD12CBC
:101B90000E94C40C97FDEBCFF70181937F01FFEF0B
:101BA000CF1ADF0A88E0C816D10491F789818137FE
:101BB000F1F68E818F3FD9F68F818F3FC1F68885F0
:101BC0008F3FA9F68D814C8150E060E070E0BA0152
:101BD00055274427782B8A81482B8B8190E0982FBA
:101BE0008827092E000CAA0BBB0B482B592B6A2BFC
:101BF0007B2BD8014D935D936D937C93139711E0EC
:101C000089859A850E94D414612F70E080E090E06D
:101C10002E960FB6F894DEBF0FBECDBFDF91CF91E9
:101C20001F910F91FF90EF90DF90CF9008951F923A
:101C30000F920FB60F9211242F933F938F939F9380
:101C4000AF93BF9380917F0590918005A09181050E
:101C5000B091820530917E0523E0230F2D3720F4CB
:101C60000196A11DB11D05C026E8230F0296A11DF6
:101C7000B11D20937E0580937F0590938005A093EE
:101C80008105B09382058091830590918405A09190
:101C90008505B09186050196A11DB11D8093830530
:101CA00090938405A0938505B0938605BF91AF916D
:101CB0009F918F913F912F910F900FBE0F901F908A
:101CC00018951F920F920FB60F9211242F933F93E6
:101CD0004F935F936F937F938F939F93AF93BF9334
:101CE000EF93FF9388E895E00E941A08FF91EF9127
:101CF000BF91AF919F918F917F916F915F914F9124
:101D00003F912F910F900FBE0F901F9018951F922B
:101D10000F920FB60F9211242F938F939F93EF93EF
:101D2000FF93E0919805F09199058081E0919E05DF
:101D3000F0919F0582FD12C090818091A1058F5F77
:101D40008F732091A205821751F0E091A105F0E078
:101D5000E857FA4F958F8093A10501C08081FF91CC
:101D6000EF919F918F912F910F900FBE0F901F9029
:101D70001895789484B5826084BD84B5816084BDF3
:101D800085B5826085BD85B5816085BD80916E0019
:101D9000816080936E00109281008091810082604A
:101DA0008093810080918100816080938100809187
:101DB00080008160809380008091B1008460809376
:101DC000B1008091B00081608093B00080917A0072
:101DD000846080937A0080917A00826080937A0098
:101DE00080917A00816080937A0080917A00806887
:101DF00080937A001092C10083E190E09093F30405
:101E00008093F20482E08093F40494E09093F504CC
:101E10009093F60497E19093F7049BE39093F80472
:101E20001092F9049091F1049E7F9093F104E09157
:101E30009805F09199058083E0919405F0919505BE
:101E40001082E0919605F09197058FEC80831092B7
:101E5000A005E0919C05F0919D0586E08083E091CE
:101E60009A05F0919B05808180618083E0919A05BD
:101E7000F0919B05808188608083E0919A05F091C4
:101E80009B05808180688083E0919A05F0919B0595
:101E900080818F7D808384E591E00E94A4088AE59B
:101EA00091E00E94A4080E94FE0C82E691E00E944C
:101EB000A4080E94FE0C80EA91E090936C06809347
:101EC0006B0683E696E090936E0680936D0681EE36
:101ED00097E09093600680935F0687E596E0909385
:101EE00062068093610688EA97E090935406809397
:101EF00053068BE496E090935606809355068AE944
:101F000091E090934806809347068FE396E0909384
:101F10004A068093490684E991E090933C068093B9
:101F20003B0683E396E090933E0680933D0687E26E
:101F300096E090938806809387061092FB04109297
:101F4000FA0410926405109263051092420581E034
:101F50008093410510921C0561E082E10E946C0CA7
:101F600061E083E10E946C0C8091B9008E7F8093C8
:101F7000B9008091B9008D7F8093B90088E4809387
:101F8000B80085E48093BC0083EF0E94910A9C0115
:101F9000265E3340BC0180E090E02230310518F429
:101FA0000E949A120EC00E949A1222E538EB4FE26C
:101FB0005BE30E94D71226E636E64BE352E40E942A
:101FC000CC136093700570937105809372059093A4
:101FD000730585EF0E94910A9C01265E3340BC0187
:101FE00080E090E02230310518F40E949A120EC071
:101FF0000E949A1220E030E04AEF5AE30E94D71282
:1020000020E030E040EC50E40E94CC136093740573
:1020100070937505809376059093770588E895E031
:102020000E94B300181619060CF043C00E942F0A34
:1020300088E895E00E949100C82F853679F788E8F6
:1020400095E00E94B30006974CF3C0936605C7E67F
:10205000D5E088E895E00E949100899385E0CD362F
:10206000D807B9F710926D0580916A058F3FB1F6D8
:1020700080916B058F3F91F680916C058F3F71F6D3
:102080004091690550E060E070E0809168059091B2
:102090006705E4E0F1E0A191B191109709F4BECF9A
:1020A0002C912913F8CF11962C9111972813F3CF67
:1020B00003C00E94BF0068CF413051056105710522
:1020C00061F41496ED91FC911597309709F4A6CF21
:1020D00016968D919C91179710C0452B462B472B38
:1020E00009F09CCF1896ED91FC911997309709F45F
:1020F00095CF1A968D919C911B9709958FCFE8E803
:10210000F5E01382128288EE93E0A0E0B0E08483D1
:102110009583A683B7832AE131E03183208325ECC0
:1021200030E03587248724EC30E03787268720ECA1
:1021300030E0318B208B21EC30E0338B228B22EC92
:1021400030E0358B248B26EC30E0378B268B118EDC
:10215000128E138E148EE9E8F6E01582168211862F
:10216000138642E050E060E070E044875587668760
:10217000778713A215A614A62CE231E033A722A775
:1021800017A6E5E2F6E020E520831182E7E2F6E01B
:102190001382128284839583A683B78388E391E0B8
:1021A00091838083E2EBF7E01082118289E691E06F
:1021B0009383828315821482118610861386128679
:1021C00017821682E6EAF7E01082118282E791E038
:1021D0009383828315821482118610861386128659
:1021E00017821682EAE9F7E0108211828AE791E00D
:1021F0009383828315821482118610861386128639
:1022000017821682EEE8F7E01082118282E891E0F0
:102210009383828315821482118610861386128618
:1022200017821682E2E8F7E0108211828BE891E0D3
:1022300093838283158214821186108613861286F8
:1022400017821682E6E7F7E0108211829383828379
:1022500015821482118610861386128617821682C2
:10226000EAE6F7E01082118293838283158214825A
:10227000118610861386128617821682EEE5F7E025
:102280001082118285E991E0938382831582148202
:10229000118610861386128617821682EAE5F7E009
:1022A000108228E0218382EA91E093838283EEE426
:1022B000F7E0108211828EEA91E093838283158287
:1022C0001482118610861386128617821682EBE717
:1022D000F6E082E0808399E091834CEB51E05383F8
:1022E0004283158214821186108613861286178205
:1022F0001682E2E4F7E080839AE0918345EC51E0B6
:1023000053834283158214821186108613861286A7
:1023100017821682E6E3F7E01082118240ED51E069
:102320005383428315821482118610861386128687
:1023300017821682EAE2F7E01082118247ED51E03F
:102340005383428315821482118610861386128667
:1023500017821682EEE1F7E01082118240EE51E022
:102360005383428315821482118610861386128647
:1023700017821682E2E1F7E01082118247EE51E007
:102380005383428315821482118610861386128627
:1023900017821682E6E0F7E01082118244EF51E0E6
:1023A0005383428315821482118610861386128607
:1023B00017821682EAEFF6E0108211824BEF51E0AD
:1023C00053834283158214821186108613861286E7
:1023D00017821682EFE6F6E0808391E0918347E072
:1023E00052E053834283158214821186108613862D
:1023F000128617821682EEEEF6E0808393E09183D8
:1024000044E152E053834283158214821186108680
:102410001386128617821682EAEEF6E010829BE09F
:10242000918343E252E053834283E6EEF6E010826A
:1024300091834DE252E053834283E2EEF6E0108254
:10244000918346E352E053834283EEEDF6E010823F
:1024500091834FE352E053834283EAEDF6E010822A
:10246000918349E452E053834283E6EDF6E0108223
:10247000918344E552E053834283E2EDF6E010821B
:1024800091834EE552E053834283E3E6F6E0808396
:1024900021832AE632E03383228315821482118657
:1024A00010861386128617821682E7E5F6E080838F
:1024B00094E0918324E732E03383228315821482EF
:1024C000118610861386128617821682EBE4F6E0D8
:1024D000808396E091832EE732E033832283158256
:1024E0001482118610861386128617821682EFE3F5
:1024F000F6E0808395E0918328E832E033832283FD
:10250000158214821186108613861286178216820F
:10251000E3E3F6E0808387E0818384E992E09383BC
:102520008283158214821186108613861286178282
:1025300016820895E89409C097FB3EF49095809523
:10254000709561957F4F8F4F9F4F9923A9F0F92F79
:1025500096E9BB279395F695879577956795B795F7
:10256000F111F8CFFAF4BB0F11F460FF1BC06F5FDD
:102570007F4F8F4F9F4F16C0882311F096E911C0EF
:10258000772321F09EE8872F762F05C0662371F010
:1025900096E8862F70E060E02AF09A95660F771F24
:1025A000881FDAF7880F9695879597F908950E9406
:1025B000EA120C945B130E944D1338F00E945413DE
:1025C00020F0952311F00C9444130C944A13112419
:1025D0000C948F130E946C1370F3959FC1F3950FA9
:1025E00050E0551F629FF001729FBB27F00DB11D97
:1025F000639FAA27F00DB11DAA1F649F6627B00D27
:10260000A11D661F829F2227B00DA11D621F739F0F
:10261000B00DA11D621F839FA00D611D221F749F1D
:102620003327A00D611D231F849F600D211D822F64
:10263000762F6A2F11249F5750409AF0F1F088238B
:102640004AF0EE0FFF1FBB1F661F771F881F9150B8
:102650005040A9F79E3F510580F00C9444130C9410
:102660008F135F3FE4F3983ED4F386957795679593
:10267000B795F795E7959F5FC1F7FE2B880F911DE2
:102680009695879597F9089597F99F6780E870E088
:1026900060E008959FEF80EC089500240A941616D8
:1026A000170618060906089500240A941216130640
:1026B000140605060895092E0394000C11F48823CE
:1026C00052F0BB0F40F4BF2B11F460FF04C06F5FEA
:1026D0007F4F8F4F9F4F089557FD9058440F551FC0
:1026E00059F05F3F71F04795880F97FB991F61F094
:1026F0009F3F79F087950895121613061406551F0B
:10270000F2CF4695F1DF08C0161617061806991F76
:10271000F1CF86957105610508940895E894BB276B
:1027200066277727CB0197F908952F923F924F9212
:102730005F926F927F928F929F92AF92BF92CF9251
:10274000DF92EF92FF920F931F93CF93DF93CDB75A
:10275000DEB7CA1BDB0B0FB6F894DEBF0FBECDBFD2
:1027600009942A88398848885F846E847D848C84A3
:102770009B84AA84B984C884DF80EE80FD800C81AC
:102780001B81AA81B981CE0FD11D0FB6F894DEBF8F
:102790000FBECDBFED0108955058BB27AA270E9458
:1027A000E4130C945B130E944D1338F00E945413F1
:1027B00020F039F49F3F19F426F40C944A130EF4D8
:1027C000E095E7FB0C944413E92F0E946C1358F337
:1027D000BA17620773078407950720F079F4A6F506
:1027E0000C948E130EF4E0950B2EBA2FA02D0B0136
:1027F000B90190010C01CA01A0011124FF27591B46
:1028000099F0593F50F4503E68F11A16F040A22F4B
:10281000232F342F4427585FF3CF469537952795BC
:10282000A795F0405395C9F77EF41F16BA0B620BBB
:10283000730B840BBAF09150A1F0FF0FBB1F661F02
:10284000771F881FC2F70EC0BA0F621F731F841F45
:1028500048F4879577956795B795F7959E3F08F06B
:10286000B0CF9395880F08F09927EE0F979587952D
:102870000895EE0FFF1F0590F491E02D0994CF937A
:10288000DF938230910510F482E090E0E091C00780
:10289000F091C10720E030E0C0E0D0E0309711F1C6
:1028A0004081518148175907C0F04817590761F412
:1028B00082819381209719F09B838A832BC0909308
:1028C000C1078093C00726C02115310519F04217B2
:1028D000530718F49A01BE01DF01EF010280F38172
:1028E000E02DDCCF2115310509F1281B390B2430EF
:1028F000310590F412968D919C9113976115710595
:1029000021F0FB019383828304C09093C1078093DD
:10291000C007FD01329644C0FD01E20FF31F819311
:102920009193225031092D933C933AC02091BE07D8
:102930003091BF07232B41F42091120130911301F4
:102940003093BF072093BE072091100130911101F1
:102950002115310541F42DB73EB740911401509136
:102960001501241B350BE091BE07F091BF07E2175C
:10297000F307A0F42E1B3F0B2817390778F0AC01A2
:102980004E5F5F4F2417350748F04E0F5F1F50937F
:10299000BF074093BE078193919302C0E0E0F0E04F
:1029A000CF01DF91CF9108950F931F93CF93DF93C2
:1029B000009709F48CC0FC013297138212820091B7
:1029C000C0071091C1070115110581F420813181E3
:1029D000820F931F2091BE073091BF072817390738
:1029E00079F5F093BF07E093BE0771C0D80140E0CE
:1029F00050E0AE17BF0750F412962D913C911397FB
:102A0000AD012115310509F1D901F3CF9D01DA019D
:102A10003383228360817181860F971F821793070A
:102A200069F4EC0128813981260F371F2E5F3F4F53
:102A3000318320838A819B8193838283452B29F470
:102A4000F093C107E093C00742C01396FC93EE9346
:102A50001297ED01499159919E01240F351FE217FC
:102A6000F30771F480819181840F951F029611966E
:102A70009C938E938281938113969C938E9312974D
:102A8000E0E0F0E0D80112968D919C9113970097A9
:102A900019F0F8018C01F6CF8D919C9198012E5F71
:102AA0003F4F820F931F2091BE073091BF07281719
:102AB000390769F4309729F41092C1071092C007C2
:102AC00002C0138212821093BF070093BE07DF91EA
:102AD000CF911F910F910895A0E0B0E0E2E7F5E1FA
:102AE0000C949913EC01009721F4CB010E943F1440
:102AF000B8C0FC01E60FF71F9C0122503109E21714
:102B0000F30708F4ACC0D9010D911C911197061779
:102B10001707B0F00530110508F49FC0C8010497ED
:102B20008617970708F499C002501109061B170B66
:102B3000019311936D937C93CF010E94D4148DC0A7
:102B40005B01A01AB10A4C01800E911EA091C00732
:102B5000B091C10740E050E0E12CF12C109709F44E
:102B60004AC0A815B905D1F56D907C901197630105
:102B700082E0C80ED11CCA14DB0480F1A3014A19FB
:102B80005B096A0182E0C80ED11C1296BC901297B4
:102B90001396AC91B5E0CB16D10440F0B282A3837A
:102BA00051834083D9016D937C930AC00E5F1F4F00
:102BB000C301800F911FF90191838083EB2DFA2FC0
:102BC000E114F10431F0D7011396FC93EE931297C0
:102BD00044C0F093C107E093C0073FC08D919C9122
:102BE00011974817590708F4AC017D0112960D9012
:102BF000BC91A02DB3CF8091BE079091BF078815DF
:102C00009905E1F446175707C8F480911001909197
:102C10001101009741F48DB79EB740911401509176
:102C20001501841B950BE817F907C8F4F093BF074B
:102C3000E093BE07F901718360830FC0CB010E944E
:102C40003F147C01009759F0A801BE010E943B1679
:102C5000CE010E94D414C70104C0CE0102C080E09E
:102C600090E0CDB7DEB7EEE00C94B51381E090E0D4
:102C7000F8940C94EC18FB01DC0102C001900D9259
:102C800041505040D8F70895FB01DC0101900D92AE
:102C90000020E1F70895AEE0B0E0E1E5F6E10C9444
:102CA000A3130D891E8986E08C831A8309838FEF15
:102CB0009FE79E838D83AE01475E5F4F6F89788D5E
:102CC000CE0101960E946E162F813885F801E20F21
:102CD000F31F10822E96E4E00C94BF13ACE0B0E03A
:102CE000E4E7F6E10C9495137C016B018A01FC0189
:102CF00017821682838181FFBDC1CE0101964C01EE
:102D0000F7019381F60193FD859193FF81916F0106
:102D1000882309F4ABC1853239F493FD859193FF83
:102D200081916F01853229F4B70190E00E94561815
:102D3000E7CF512C312C20E02032A0F48B3269F007
:102D400030F4803259F0833269F420612CC08D3226
:102D500039F0803339F4216026C02260246023C01A
:102D6000286021C027FD27C030ED380F3A3078F4B5
:102D700026FF06C0FAE05F9E300D1124532E13C0CB
:102D80008AE0389E300D1124332E20620CC08E3222
:102D900021F426FD6BC1206406C08C3611F4206836
:102DA00002C0883641F4F60193FD859193FF81912D
:102DB0006F018111C1CF982F9F7D9554933028F4D6
:102DC0000C5F1F4FFFE3F9830DC0833631F083376B
:102DD00071F0833509F05BC022C0F80180818983DE
:102DE0000E5F1F4F44244394512C540115C03801E9
:102DF000F2E06F0E711CF801A080B18026FF03C0C5
:102E0000652D70E002C06FEF7FEFC5012C870E9437
:102E10004B182C0183012C852F77222E17C03801E7
:102E2000F2E06F0E711CF801A080B18026FF03C094
:102E3000652D70E002C06FEF7FEFC5012C870E9407
:102E400040182C012C852068222E830123FC1BC0F6
:102E5000832D90E048165906B0F4B70180E290E067
:102E60000E9456183A94F4CFF50127FC859127FE6D
:102E700081915F01B70190E00E94561831103A9499
:102E8000F1E04F1A51084114510471F7E5C084363E
:102E900011F0893639F5F80127FF07C0608171818B
:102EA000828193810C5F1F4F08C060817181072E62
:102EB000000C880B990B0E5F1F4F2F76722E97FF19
:102EC00009C090958095709561957F4F8F4F9F4F6A
:102ED0002068722E2AE030E0A4010E948E18A82EED
:102EE000A81844C0853729F42F7EB22E2AE030E09E
:102EF00025C0F22FF97FBF2E8F36C1F018F4883528
:102F000079F0B4C0803719F0883721F0AFC02F2F87
:102F10002061B22EB4FE0DC08B2D8460B82E09C086
:102F200024FF0AC09F2F9660B92E06C028E030E02B
:102F300005C020E130E002C020E132E0F801B7FE38
:102F400007C060817181828193810C5F1F4F06C031
:102F50006081718180E090E00E5F1F4FA4010E94AC
:102F60008E18A82EA818FB2DFF777F2E76FE0BC09B
:102F7000372D3E7FA51450F474FE0AC072FC08C0C1
:102F8000372D3E7E05C0BA2C372D03C0BA2C01C0A8
:102F9000B52C34FF0DC0FE01EA0DF11D8081803398
:102FA00011F4397E09C032FF06C0B394B39404C053
:102FB000832F867809F0B39433FD13C030FF06C029
:102FC0005A2CB31418F4530C5B18B32CB31468F4D4
:102FD000B70180E290E03C870E945618B3943C858C
:102FE000F5CFB31410F43B1801C0312C34FF12C0DC
:102FF000B70180E390E03C870E9456183C8532FF81
:1030000017C031FD03C088E790E002C088E590E07A
:10301000B7010CC0832F867859F031FF02C08BE2D4
:1030200001C080E237FD8DE2B70190E00E945618A2
:10303000A51438F4B70180E390E00E9456185A9422
:10304000F7CFAA94F401EA0DF11D8081B70190E059
:103050000E945618A110F5CF332009F451CEB701C4
:1030600080E290E00E9456183A94F6CFF7018681EC
:10307000978102C08FEF9FEF2C96E2E10C94B11381
:10308000FC010590615070400110D8F78095909533
:103090008E0F9F1F0895FC01615070400190011038
:1030A000D8F7809590958E0F9F1F08950F931F93CB
:1030B000CF93DF93FB01238121FD03C08FEF9FEFAF
:1030C00028C022FF16C046815781248135814217CE
:1030D000530744F4A081B1819D012F5F3F4F31839D
:1030E00020838C93268137812F5F3F4F3783268340
:1030F00010C0EB01092F182F0084F185E02D0995F0
:10310000892BE1F68E819F8101969F838E83812F8B
:10311000902FDF91CF911F910F910895FA01AA2767
:10312000283051F1203181F1E8946F936E7F6E5F0A
:103130007F4F8F4F9F4FAF4FB1E03ED0B4E03CD0B8
:10314000670F781F891F9A1FA11D680F791F8A1F9B
:10315000911DA11D6A0F711D811D911DA11D20D002
:1031600009F468943F912AE0269F11243019305DBC
:103170003193DEF6CF010895462F4770405D4193AD
:10318000B3E00FD0C9F7F6CF462F4F70405D4A33FA
:1031900018F0495D31FD4052419302D0A9F7EACFC2
:1031A000B4E0A6959795879577956795BA95C9F7F1
:1031B00000976105710508959B01AC010A2E0694E4
:1031C0005795479537952795BA95C9F7620F731F9D
:0C31D000841F951FA01D0895F894FFCFE8
:1031DC00FFFFFFFF630657064B063F063306000052
:1031EC000000C2078000000000003B08660A820055
:1031FC008208B3009100A50000000000CA05660A11
:10320C000001FF0000000000650135010001D30042
:10321C00F700E300D4002564002E7478743D22007E
:10322C0067657420002E76616C00626B636D643D83
:10323C00310070616765203000745F74656D704992
:10324C006E00745F68756D496E00745F434F324950
:10325C006E00745F54564F43496E00745F74656D15
:10326C00704F757400765F666F7265636173744935
:10327C00440077665F70616765486F6D65006E48E6
:10328C006F6D655061676557464944007661725FA2
:10329C00686F7572007661725F6D696E757465002A
:1032AC00745F686F757200745F6D696E757465001C
:1032BC00745F79656172007661725F6D6F6E7468B0
:1032CC004E756D00745F64617465007661725F7732
:1032DC0065656B4E756D00745F686F75725F7053CA
:1032EC0065747400745F6D696E7574655F70536599
:1032FC0074740077665F74656D70496E0077665FF5
:10330C0068756D496E0077665F434F32496E007782
:10331C00665F54564F43496E0077665F74656D70F7
:10332C004F75740077665F68756D4F7574007766BE
:10333C005F70726573734F757400625F736574545C
:10334C00696D6500625F686F7572496E6300625FDC
:10335C00686F757244656300625F6D696E75746544
:10336C00496E6300625F6D696E75746544656300D8
:00000001FF
