:100000000C9463000C943F0B0C94180B0C9460023E
:100010000C9460020C9460020C948B000C948B0086
:100020000C948B000C948B000C948B000C948B0024
:100030000C948B000C948B000C948B000C948B0014
:100040000C94CE0A0C948B000C94A30B0C947D0B97
:100050000C948B000C948B000C948B000C948B00F4
:100060000C948C080C948B00000000080002010026
:100070000003040700000000000000000000000072
:10008000240027002A000000000023002600290089
:1000900000000000250028002B00040404040404D0
:1000A0000404020202020202030303030303010227
:1000B00004081020408001020408102001020408F6
:1000C000102071139F0F11241FBECFEFD8E0DEBFA9
:1000D000CDBF11E0A0E0B1E0E2E4FBE202C0059098
:1000E0000D92A439B107D9F725E0A4E9B1E001C028
:1000F0001D92A63CB207E1F710E0C2E6D0E004C0D2
:100100002197FE010E948915C136D107C9F70E94C7
:10011000BB0F0C9494150C94000080E090E0892BA8
:1001200029F00E94220A81110C9400000895209168
:100130008604309187042817390771F4909184045C
:1001400080918504981741F0E0918404F0E0E25C2E
:10015000FD4F808190E008958FEF9FEF08950895FF
:100160001F93CF93DF93DC015C968D919C915D97FB
:10017000009739F421E030E013963C932E931297C8
:100180003BC05196ED91FC91529750962C9150970F
:10019000322F30951FB75E964C915E97742F727018
:1001A00041FD6095F8944081772311F0422B01C006
:1001B00043234083EC012197F1F748E0508160FF31
:1001C00002C0522B01C053235083EC012197F1F759
:1001D0006695415099F78081772319F083238083B6
:1001E00002C0282B20831FBF5C968D919C915D9748
:1001F0000197F1F781E090E0DF91CF911F91089591
:1002000020918604309187042817390771F4809172
:1002100085042091840490E0805C9F4F821B9109AB
:1002200060E470E00E946115089580E090E0089518
:10023000209186043091870428173907B9F49091EA
:10024000840480918504981789F0E0918404F0E09B
:10025000E25CFD4F80812091840430E02F5F3F4FAE
:100260002F7333272093840490E008958FEF9FEF3E
:10027000089508950895E091920480919104E817FB
:1002800030F4F0E0E25EFD4F808190E008958FEF62
:100290009FEF08959091920480919104981750F4E3
:1002A000E92FF0E0E25EFD4F208130E09F5F909308
:1002B000920402C02FEF3FEFC9010895809191048D
:1002C00090E020919204821B91090895089580E0A6
:1002D00090E0089585ED8093BC008091BC0084FD82
:1002E000FCCF10928E0408954091B501262F30E086
:1002F000240F311D21323105DCF420918E0424308D
:10030000C9F4FC0180E090E0861758F43091B50103
:100310002191DC01AB56BE4FA30FB11D2C9301966A
:10032000F3CF8091B501680F6093B50180E0089527
:1003300081E0089582E00895CF92DF92EF92FF92DC
:100340000F931F93CF93DF937C01CB018A01209100
:100350001D02222389F0EB016B01C40ED51ECC15C2
:10036000DD0569F06991D701ED91FC910190F08173
:10037000E02DC7010995F3CF642F0E947401C801D5
:10038000DF91CF911F910F91FF90EF90DF90CF9071
:100390000895CF93DF931F92CDB7DEB76983209185
:1003A0001D022223D1F020918F04203240F021E061
:1003B00030E0FC013383228380E090E015C080911F
:1003C0009004E82FF0E0E350FE4F998190838F5F17
:1003D0008093900480938F0405C061E0CE01019664
:1003E0000E94740181E090E00F90DF91CF91089519
:1003F0008091930480FD03C0826080939304809178
:1004000094018F5F813019F08093940108951092C8
:10041000940180919304846080939304089561E033
:10042000FC0184810E94940E80917E0281111092C1
:100430007E020895FC01848DDF01A80FB11DA35A2F
:10044000BF4F2C91848D90E001968F739927848FF4
:10045000A689B7892C93A089B1898C918370806417
:100460008C93938D848D981306C00288F389E02DB8
:1004700080818F7D80830895CF93DF93EC0187EA9D
:1004800094E00E94160A892B29F087EA94E00E94E2
:10049000F409F5CFBE0187EA94E00E947B0B6FEF71
:1004A00087EA94E00E942E0A6FEF87EA94E00E94A8
:1004B0002E0A6FEF87EA94E0DF91CF910C942E0A19
:1004C0001F920F920FB60F9211242F933F934F93C9
:1004D0005F936F937F938F939F93AF93BF93EF93AC
:1004E000FF93E0918604F0918704309709F451C09E
:1004F000968DA685B785858591FF04C09C9189233B
:1005000029F447C09C91892309F043C0A389B48989
:100510009C918589809589238C93868997890197F9
:10052000F1F7608D718DA685B785558538E020E09F
:10053000CB010197F1F7822F90E095958795282FB1
:100540004C91452309F02068315091F7868D81FD4B
:1005500020958091850490E001968F7399273091C2
:100560008404381749F0A0918504B0E0A25CBD4F27
:100570002C938093850403C0868D8160868F828D45
:10058000938D0197F1F7A389B4899C918589892B73
:100590008C93FF91EF91BF91AF919F918F917F913C
:1005A0006F915F914F913F912F910F900FBE0F90E0
:1005B0001F9018958EBD00000DB407FEFDCF8EB5BF
:1005C00008958FEF0C94DA020F931F93CF93DF936C
:1005D000EB010E94C20A8B010E94E1028F3F49F0A9
:1005E0000E94C20A601B710B6C177D07A8F380E0A4
:1005F00001C081E0DF91CF911F910F910895CF93BA
:10060000DF93EC018E81882389F08F8198859C018E
:100610002F5F3F4F38872F838230924018F40E941B
:10062000E102F3CFCE010E940F021E82DF91CF9133
:1006300008958F929F92AF92BF92FF920F931F9354
:10064000CF93DF93EC01F62E49015A010E94FF027D
:1006500080917E02811109C081E080937E02909199
:100660004405809145059CBD8DBD60E08C810E9454
:10067000940E6CE271E0CE010E94E4028F2D806442
:100680000E94DA0208E110E0D501C401002E04C086
:10069000B695A795979587950A94D2F70E94DA02A6
:1006A00008501109083F8FEF180771F7FF2029F054
:1006B00088E0F81204C087E803C085E901C08FEF25
:1006C0000E94DA0210E00E94E1028A8787FF04C0DC
:1006D0001F3F11F01F5FF7CFDF91CF911F910F9157
:1006E000FF90BF90AF909F908F900895EF92FF92F0
:1006F0000F931F93CF93DF93EC01790141155105BF
:100700006105710511F482E13CC08B85833039F0BD
:1007100089E0440F551F661F771F8A95D1F79A010C
:10072000AB0168E1CE010E941903882311F084E037
:1007300028C08EEF0E94DA0287018EEFF81AF801C6
:1007400081918F010E94DA02E016F106C1F78FEF66
:100750000E94DA028FEF0E94DA020E94E1028A8789
:100760008F71853031F081E18D83CE010E940F02BF
:1007700009C068E572E0CE010E94E402811107C061
:1007800085E18D83CE010E940F0280E014C020E03D
:1007900030E0A9016DE0CE010E941903811109C06A
:1007A0000E94E102811105C0CE010E940F0281E08A
:1007B00002C084E1E6CFDF91CF911F910F91FF90AE
:1007C000EF90089580917F02882389F14091000184
:1007D00050910101609102017091030124E832E01F
:1007E00080E090E00E947603811102C080E00895CD
:1007F0004091800250918102609182027091830247
:10080000411551056105710581F024E832E080E071
:1008100090E00E947603882349F3109280021092A0
:100820008102109282021092830210927F0281E074
:100830000895AF92BF92CF92DF92EF92FF921F93F3
:10084000CF93DF936B017C01142F80910001909175
:100850000101A0910201B09103018C159D05AE0527
:10086000BF0509F48FC00E94E203882309F490C0F9
:10087000809106008823A1F08091000090910100F2
:10088000A0910200B0910300C816D906EA06FB0643
:1008900039F48091070090910800892B09F443C036
:1008A000C0920000D0920100E0920200F09203009A
:1008B00080910B00A7019601833039F099E0220F57
:1008C000331F441F551F9A95D1F761E180E090E0F6
:1008D0000E941903882321F083E08093050044C01F
:1008E0000E94C20AEB010E94E10280930A008F3F3E
:1008F00049F40E94C20A6C1B7D0B6D32714098F363
:100900008FE003C08E3F41F08DE08093050080E0D2
:1009100090E00E940F0228C0109208001092070079
:1009200081E080930600C4E8D2E084E8A82E84E049
:10093000B82E0E94E1028993AC16BD06D1F78091D2
:100940000700909108009E5F909308008093070035
:1009500020910900222319F08115924058F080E07F
:1009600090E00E94FF0206C080E090E00E940F022B
:1009700080E00EC0C0920001D0920101E09202011D
:10098000F092030140917F02412B40937F0281E06E
:10099000DF91CF911F91FF90EF90DF90CF90BF90AC
:1009A000AF9008954F925F926F927F928F929F9235
:1009B000AF92BF92CF92DF92EF92FF920F931F936D
:1009C000CF93DF93EC01423051056105710510F4BE
:1009D00080E078C089859A85AB85BC850196A11D8C
:1009E000B11D84179507A607B70790F3CB88DC885D
:1009F000ED88FE888F89803129F4BB27A72F962F99
:100A0000852F09C0DB01CA01E7E0B695A795979548
:100A10008795EA95D1F7480159012A013B01C80E93
:100A2000D91EEA1EFB1E8091000190910101A09148
:100A30000201B0910301C816D906EA06FB0681F44B
:100A40008F898031A9F4B301A20155276627772742
:100A5000440F551FFA01EC57FD4F9182808219C057
:100A600040E0C701B6010E9419048111E9CFB0CF5F
:100A7000B301A2014F77552766277727440F551FEB
:100A8000440F551FFA01EC57FD4F80829182A282DC
:100A9000B38280917F02816080937F028A89823055
:100AA00080F08D819E81AF81B885C80ED91EEA1E67
:100AB000FB1EC0928002D0928102E0928202F092EC
:100AC000830281E0DF91CF911F910F91FF90EF9012
:100AD000DF90CF90BF90AF909F908F907F906F905E
:100AE0005F904F9008958F929F92AF92BF92CF9256
:100AF000DF92EF92FF920F931F93CF93DF93FC014E
:100B000081859285A385B4850196A11DB11D8417A9
:100B10009507A607B70710F480E05BC08388948828
:100B2000A588B6888789803129F4BB27A72F962FFF
:100B3000852F09C0DB01CA01C7E0B695A795979537
:100B40008795CA95D1F7E9016A017B018F01BC0144
:100B5000CD01680D791D8A1D9B1D8090000190902C
:100B60000101A0900201B0900301681579058A0582
:100B70009B0591F4F80187898031A1F4DD24EE24EE
:100B8000FF24C601880F991FFC01EC57FD4F80819F
:100B90009181A0E0B0E018C040E00E9419048111EA
:100BA000E9CFBACFE894C7F8DD24EE24FF24C601CC
:100BB000880F991F880F991FFC01EC57FD4F80810A
:100BC0009181A281B381BF7088839983AA83BB83FB
:100BD00081E0DF91CF911F910F91FF90EF90DF9017
:100BE000CF90BF90AF909F908F9008954F925F925B
:100BF0006F927F92AF92BF92CF92DF92EF92FF926D
:100C00000F931F93CF93DF9300D000D01F92CDB7E7
:100C1000DEB78C016D83DC0115968C9115978130C0
:100C200009F054C014968C9181FF50C057C025859F
:100C300030E0275F3F4F2A013B01B1E04B1A5108DA
:100C400061087108022E04C0769467945794479403
:100C50000A94D2F7D701C6010197A109B10904C0CE
:100C6000B695A795979587952A95D2F784159505FA
:100C7000A605B70508F076C0F8014789508D618D4B
:100C8000728D46835783608771872C013D0158011F
:100C9000F6E0AF0EB11C411451046104710409F473
:100CA0006BC0D80116964D915D916D917C9119970D
:100CB00095015B968D919C915C970E947305B1E0C4
:100CC0004B1A5108610871088111E5CF81E090E06D
:100CD000F8019383828380E090E05BC182FF0EC0C5
:100CE000F8014285538564857585C388D488E58875
:100CF000F6884C155D056E057F05E9F4D8011A9656
:100D00004D915D916D917C911D975B96ED91FC915C
:100D10005C97948191506A017B0189E0F694E79495
:100D2000D794C7948A95D1F79C217A01B1E0FB2230
:100D3000911173C027C0D801038CF48DE02DC1142C
:100D4000D104E104F10409F072CF16961D921D92B0
:100D50001D921C9219971A961D921D921D921C921B
:100D60001D9714C0452B462B472B09F485CF8419BA
:100D70009509A609B70989CFF801C286D386E4860A
:100D8000F586BCCFE114F10409F047C0D8011696EE
:100D90004D915D916D917C911997411551056105BA
:100DA000710559F457968D919D910D90BC91A02D90
:100DB0000097A105B10549F522C09E012F5F3F4F65
:100DC000CF010E947305882309F485CF89819A8118
:100DD000AB81BC81F801238D348DF9012789203145
:100DE00029F448EF5FEF60E070E004C048EF5FEF88
:100DF0006FEF7FE084179507A607B70730F0C801AB
:100E00000E94910D811106C061CFF80186839783FE
:100E1000A087B187E12CF12C90E0D8015B96ED9191
:100E2000FC915C9716964D905D906D907C90199713
:100E3000B2E04B1A510861087108058404C0440CE3
:100E4000551C661C771C0A94D2F746855785608925
:100E50007189440E551E661E771E490E511C611C79
:100E6000711CE114F10409F5F8014285538564858C
:100E7000758583899489A589B689481759076A07B2
:100E80007B0798F00E94E203882309F41FCF409269
:100E90000001509201016092020170920301809161
:100EA0007F02816080937F0208C041E0C301B201EC
:100EB0000E941904882309F409CFF701EC57FD4F6C
:100EC0008D818083F80182859385A485B5850196FF
:100ED000A11DB11D82879387A487B5874389548953
:100EE00065897689481759076A077B0738F4838B29
:100EF000948BA58BB68B848180688483D8011496EB
:100F00008C9183FD03C081E090E043C0F80195819E
:100F1000992309F4DBCE87FF37C066857785808902
:100F2000918941E00E941904882309F4CFCED801A9
:100F30005296EC91B0E2EB9FF0011124EC57FD4F7B
:100F4000309709F4C3CED80115968C91159782304D
:100F500050F453964D915D916D917C915697448FCD
:100F6000558F668F778FD80157964D915D916D9112
:100F70007C915A97538F428F758B648B14968C910A
:100F800014978F7714968C930E94E2038111BBCF44
:100F90009DCE0F900F900F900F900F90DF91CF91FB
:100FA0001F910F91FF90EF90DF90CF90BF90AF9087
:100FB0007F906F905F904F90089530918F04313201
:100FC00008F04BC080918E048111FCCF9091FC0100
:100FD00022E020938E0421E020938D042FEF2093B4
:100FE000FB011092FA013093F901EDEFF1E0A9ED68
:100FF000B1E020E0321721F041914D932F5FFACFFD
:101000001092D8012091D801990F922B9093D8017A
:1010100090918C04913061F410928C049091D801DD
:101020009093BB009091BC0093FDF8CF95EC01C06C
:1010300095EE9093BC0090918E049230E1F39091E4
:10104000FB019F3F79F08091FB01803241F080915C
:10105000FB01803331F084E005C081E003C082E011
:1010600001C083E01092900410928F0410921D0230
:10107000089581E080931D026093FC01109290041A
:1010800010928F04089580918E048111FCCF41321B
:1010900008F040E281E080938E0480938D049FEFFE
:1010A0009093FB011092FA01940F9093F9018093B1
:1010B000D8018091D801660F682B6093D801809188
:1010C0008C04813061F410928C048091D80180935B
:1010D000BB008091BC0083FDF8CF85EC01C085EE9C
:1010E0008093BC0080918E048130E1F38091FA01FD
:1010F000841710F44091FA01A9EDB1E0EEE1F2E0BD
:1011000080E0841721F09D9191938F5FFACF109228
:1011100092048093910408951F920F920FB60F923C
:1011200011242F933F934F935F936F937F938F93EC
:101130009F93AF93BF93EF93FF938091B900887F04
:10114000803609F49CC068F5883209F45BC090F4DD
:10115000803109F454C038F4882309F4F6C088308B
:1011600009F44DC0F6C0883109F44CC0803209F44E
:101170005DC0EFC0803409F468C048F4803309F4DE
:1011800055C0883309F0E5C08093FB01D8C0803595
:1011900009F44FC0883509F45DC0883409F0D9C01E
:1011A000D6C0883909F4C7C0A8F4883709F467C0E5
:1011B00038F4883609F463C0803709F460C0C9C0C8
:1011C000883809F4B8C0803909F45FC0803809F064
:1011D000C0C05BC0803B09F486C038F4803A09F493
:1011E00066C0883A09F47FC0B4C0803C09F4A7C047
:1011F000883C09F4A4C0883B09F48AC0AAC0809145
:10120000D80110C09091FA018091F901981770F5FA
:10121000E091FA0181E08E0F8093FA01F0E0E7524D
:10122000FE4F80818093BB0085EC86C08093FB01DC
:101230008EC0E091FA0181E08E0F8093FA018091D7
:10124000BB00F0E0E752FE4F80839091FA0180915D
:10125000F9016EC0E091FA0181E08E0F8093FA01EE
:101260008091BB00F0E0E752FE4F808380918D04B7
:1012700081116DC081E080938C0484EA61C083E0B9
:1012800080938E041092D701CFCF8091D701803206
:1012900008F051C0E091D70181E08E0F8093D70113
:1012A0008091BB00F0E0E954FE4F8083BDCF85EC18
:1012B0008093BC0010928E048091D701803230F46C
:1012C000E091D701F0E0E954FE4F10826091D70120
:1012D00070E0E0918804F091890487EB91E0099532
:1012E0001092D70136C084E080938E041092B6012C
:1012F0001092B501E0918A04F0918B0409958091D8
:10130000B501811105C081E08093B501109295016E
:10131000E091B60181E08E0F8093B601F0E0EB56CC
:10132000FE4F80818093BB009091B6018091B50102
:10133000981708F479CF85E88093BC000AC085EC43
:101340008093BC0010928E0404C01092FB010E9496
:101350006A01FF91EF91BF91AF919F918F917F9122
:101360006F915F914F913F912F910F900FBE0F9012
:101370001F9018950895CF92DF92EF92FF920F93EE
:101380001F93CF93DF936C017A018B01C0E0D0E013
:10139000CE15DF0581F0D8016D918D01D601ED915B
:1013A000FC910190F081E02DC6010995892B11F087
:1013B0002196EECF7E01C701DF91CF911F910F9152
:1013C000FF90EF90DF90CF900895FC01538D448DF6
:1013D000252F30E0842F90E0821B930B541710F0E0
:1013E000CF96089501970895FC01918D828D9817ED
:1013F00061F0828DDF01A80FB11D5D968C91928DF9
:101400009F5F9F73928F90E008958FEF9FEF0895F5
:10141000FC01918D828D981731F0828DE80FF11DBE
:10142000858D90E008958FEF9FEF0895FC01918DD9
:10143000228D892F90E0805C9F4F821B91098F73D2
:101440009927089587EA94E00E94160A21E0892BE3
:1014500009F420E0822F08950E948F15EF92FF92E9
:101460000F931F93CF93DF93EC0181E0888F9B8DC7
:101470008C8D981305C0E889F989808185FD26C087
:10148000F62E0B8D10E00F5F1F4F0F731127E02E0C
:101490008C8DE8120CC00FB607FCFACFE889F989E9
:1014A000808185FFF5CFCE010E941A02F1CF8B8D8E
:1014B000FE01E80FF11DE35AFF4FF0829FB7F89449
:1014C0000B8FEA89FB89808180620AC09FB7F894FC
:1014D000EE89FF896083E889F9898081837080645F
:1014E00080839FBF81E090E0DF91CF911F910F91AA
:1014F000FF90EF900895CF93DF93EC01888D8823C0
:10150000C9F0EA89FB89808185FD05C0A889B98970
:101510008C9186FD0FC00FB607FCF5CF808185FF4B
:10152000F2CFA889B9898C9185FFEDCFCE010E94B9
:101530001A02E7CFDF91CF9108953FB7F8948091D9
:10154000A3049091A404A091A504B091A60426B58B
:10155000A89B05C02F3F19F00196A11DB11D3FBFEB
:10156000BA2FA92F982F8827820F911DA11DB11D79
:10157000BC01CD0142E0660F771F881F991F4A9575
:10158000D1F708952FB7F89460919F047091A0044B
:101590008091A1049091A2042FBF08951F920F92F1
:1015A0000FB60F9211242F933F938F939F93AF9376
:1015B000BF9380919F049091A004A091A104B09149
:1015C000A20430919E0423E0230F2D3720F40196CE
:1015D000A11DB11D05C026E8230F0296A11DB11D56
:1015E00020939E0480939F049093A004A093A10451
:1015F000B093A2048091A3049091A404A091A504A7
:10160000B091A6040196A11DB11D8093A3049093EF
:10161000A404A093A504B093A604BF91AF919F9199
:101620008F913F912F910F900FBE0F901F901895A3
:101630001F920F920FB60F9211242F933F934F9347
:101640005F936F937F938F939F93AF93BF93EF932A
:10165000FF93E0910601F09107010995FF91EF9149
:10166000BF91AF919F918F917F916F915F914F91BA
:101670003F912F910F900FBE0F901F9018951F92C2
:101680000F920FB60F9211242F933F934F935F93B6
:101690006F937F938F939F93AF93BF93EF93FF933A
:1016A000E0910401F09105010995FF91EF91BF913F
:1016B000AF919F918F917F916F915F914F913F91EA
:1016C0002F910F900FBE0F901F9018956115710507
:1016D00079F0FB0101900020E9F73197AF01461B3B
:1016E000570BDC01ED91FC910280F381E02D099410
:1016F00080E090E008950C94660B1F920F920FB655
:101700000F9211242F933F934F935F936F937F9387
:101710008F939F93AF93BF93EF93FF9387EA94E0E8
:101720000E941A02FF91EF91BF91AF919F918F910B
:101730007F916F915F914F913F912F910F900FBECD
:101740000F901F9018951F920F920FB60F921124B1
:101750002F938F939F93EF93FF93E091B704F091B2
:10176000B8048081E091BD04F091BE0482FD12C0F6
:1017700090818091C0048F5F8F732091C104821784
:1017800051F0E091C004F0E0E955FB4F958F809354
:10179000C00401C08081FF91EF919F918F912F91A3
:1017A0000F900FBE0F901F901895682F86E495E05C
:1017B0000C94C9018F929F92AF92BF92EF92FF92C9
:1017C0000F931F93CF93DF9300D000D0CDB7DEB738
:1017D00019821A821B821C8284E690E0A0E0B0E0AD
:1017E0008093AB049093AC04A093AD04B093AE048B
:1017F0008E010F5F1F4F7E0185E0E80EF11C0E94F5
:10180000C20A6093AF047093B0048093B1049093C4
:10181000B20487EA94E00E94F40997FF2CC00E946A
:10182000C20A8090AF049090B004A090B104B09030
:10183000B204DC01CB0188199909AA09BB0980907F
:10184000AB049090AC04A090AD04B090AE048815A9
:101850009905AA05BB05E8F28981813051F48A8196
:101860008F3F39F48B818F3F21F481E09C819F3F32
:1018700051F080E008C0F80181938F01EE16FF0659
:1018800009F0BDCFE9CF0F900F900F900F90DF912F
:10189000CF911F910F91FF90EF90BF90AF909F90CD
:1018A0008F9008958F929F92AF92BF920F931F9344
:1018B000CF93DF93CDB7DEB7A1970FB6F894DEBF15
:1018C0000FBECDBF19A2423008F44AE08E010F5D71
:1018D0001F4F842E912CA12CB12CA50194010E94A4
:1018E0003015E62FB901CA0101501109EA3014F48C
:1018F000E05D01C0E95CD801EC93232B242B252B60
:1019000061F7B8018DE595E00E94660BA1960FB6D0
:10191000F894DEBF0FBECDBFDF91CF911F910F9125
:10192000BF90AF909F908F900895CF93DF93682FD3
:1019300070E080E090E04AE00E94520CEC0163E627
:1019400071E08DE595E00E94660B8C0F9D1FDF9185
:10195000CF910895CF92DF92EF92FF92CF93DF93D2
:101960006B017C016DE28DE595E00E94B000EC0119
:1019700066277727CB016C197D098E099F094AE0FC
:101980000E94520C8C0F9D1FDF91CF91FF90EF9022
:10199000DF90CF90089597FD0C94AA0C4AE00C9428
:1019A000520C8F929F92AF92BF92CF92DF92EF92A2
:1019B000FF920F931F93CF93C82F60E480915A0535
:1019C00090915B050E94390880915A0590915B05C2
:1019D000DC01ED91FC910190F081E02D6C2F0995D7
:1019E00080915A0590915B050E94DD07CAE00E9434
:1019F0009D0A4B015C01AAE0CA2ED12CE12CF12CEE
:101A00000E949D0ADC01CB0188199909AA09BB092A
:101A1000883E9340A105B10598F3B1E0CB1AD108F7
:101A2000E108F10828EE820E23E0921EA11CB11CF1
:101A3000C114D104E104F10419F743E050E060E47B
:101A400070E080915A0590915B050E944308C15057
:101A500009F456C0833059F680915A0590915B0580
:101A6000DC01ED91FC910284F385E02D0995F82EBF
:101A700080915A0590915B05DC01ED91FC91028407
:101A8000F385E02D0995C82F80915A0590915B054B
:101A9000DC01ED91FC910284F385E02D09951F2D69
:101AA00000E098012C2BA90160E070E0762F652FF3
:101AB000542F4427482B87E190E0C12CE0E8DE2E2C
:101AC000E8E9EE2EF12C4A015B01082E04C0B69421
:101AD000A794979487940A94D2F780FE04C04C256B
:101AE0005D256E257F25F694E794D794C7940197DA
:101AF0008730910541F7411106C0C9018C7F05C0AF
:101B000086EE93E002C087EE93E0CF911F910F9194
:101B1000FF90EF90DF90CF90BF90AF909F908F900D
:101B200008953F924F925F926F927F928F929F9211
:101B3000AF92BF92CF92DF92EF92FF920F931F93DB
:101B4000CF93DF93CDB7DEB72C970FB6F894DEBFF7
:101B50000FBECDBF5C01DC015B968D909C905C97C5
:101B60001696CD90DD90ED90FC901997C114D1049C
:101B7000E104F10439F0BFEFCB1ADB0AEB0AFB0AF0
:101B8000312C07C0F401C080D180E280F38033247F
:101B90003394F40181859285A385B4859C01AD01C0
:101BA0002F5F3F4F4F4F5F4F29873A874B875C87A7
:101BB000260137011D821E821F821886F40181854D
:101BC0009285A385B4852D813E814F815885281744
:101BD00039074A075B0708F063C089859A85AB859A
:101BE000BC858C159D05AE05BF0550F482E0C82E5E
:101BF000D12CE12CF12C92E0492E512C612C712C2E
:101C00009E012F5F3F4FB701A601C4010E947305DB
:101C1000882309F445C089819A81AB81BC81892BD5
:101C20008A2B8B2B41F0260137019FEF491A590A65
:101C3000690A790A05C0C414D504E604F70491F0D2
:101C40002D813E814F8158852F5F3F4F4F4F5F4F12
:101C50002D833E834F8358873FEFC31AD30AE30A8D
:101C6000F30AACCF0FEF1FEF2FEF3FE0B301A2015C
:101C7000C4010E94D204882399F0D50116964D9193
:101C80005D916D917C911997411551056105710523
:101C900049F093018201C4010E94D204811102C063
:101CA00080E02AC0D50116964D925D926D927C928D
:101CB0001997332051F0D301C2010196A11DB11D26
:101CC000F40180839183A283B383F5018789908D8A
:101CD000A18DB28D892B8A2B8B2B69F4D501579658
:101CE0004D925D926D927C925A9714968C911497B6
:101CF000806814968C9381E02C960FB6F894DEBF22
:101D00000FBECDBFDF91CF911F910F91FF90EF904C
:101D1000DF90CF90BF90AF909F908F907F906F900B
:101D20005F904F903F90089590E0FC01E859FF4F7D
:101D30002491FC01E255FF4F3491FC01E656FF4F20
:101D4000E491EE2309F43CC0222339F1233091F0D1
:101D500038F42130A9F0223001F584B58F7D12C00E
:101D6000273091F02830A1F02430B9F48091800020
:101D70008F7D03C0809180008F77809380000DC09D
:101D800084B58F7784BD09C08091B0008F7703C080
:101D90008091B0008F7D8093B000F0E0EE0FFF1FC8
:101DA000E057FF4FA591B4919FB7F894611104C01B
:101DB0008C913095382302C0EC913E2B3C939FBF11
:101DC000089561E0809153050C94940E60E0809139
:101DD00053050C94940E0F931F93CF93DF93082F0A
:101DE000EA01162F809152058130B1F00E94E60E73
:101DF00081E00E94DA0281E00E94DA020E94E10E94
:101E00000E94E60E85E00E94DA028FEF0E94DA025D
:101E1000809352050E94E10E0E94E60E802F0E94E0
:101E2000DA028091540590915505813092401CF062
:101E3000812F0E94DA028D2F0E94DA028C2FDF910F
:101E4000CF911F910F910C94DA021F93CF93DF93E0
:101E5000182FC0910801D0910901AE0160E070E037
:101E600082E00E94EB0E812F0E94DA020E94E10EB6
:101E70002196CA30D10529F0D0930901C0930801F9
:101E800004C01092090110920801DF91CF911F91B7
:101E90000895CF934091080150910901840F951F37
:101EA000AC010A9710F04A50510960E070E083E0FD
:101EB0000E94EB0E8FEF0E94DA02C82F0E94E10E03
:101EC0008C2FCF910895CF93DF9390E0FC01E255E2
:101ED000FF4F2491FC01E656FF4F8491882361F166
:101EE00090E0880F991FFC01E458FF4FC591D491F1
:101EF000FC01E057FF4FA591B491611109C09FB754
:101F0000F8948881209582238883EC912E230BC03E
:101F1000623061F49FB7F8948881322F3095832323
:101F20008883EC912E2B2C939FBF06C08FB7F8941B
:101F3000E8812E2B28838FBFDF91CF9108958AE40B
:101F400091E090935E0580935D0580918604909169
:101F500087048D55954071F4E0917005F0917105FD
:101F600090818091720580958923808310928704E7
:101F7000109286040895789484B5826084BD84B5F7
:101F8000816084BD85B5826085BD85B5816085BD74
:101F900080916E00816080936E001092810080912C
:101FA00081008260809381008091810081608093B4
:101FB0008100809180008160809380008091B100D9
:101FC00084608093B1008091B00081608093B00004
:101FD00080917A00846080937A0080917A00826098
:101FE00080937A0080917A00816080937A0080915A
:101FF0007A00806880937A001092C1001092780570
:10200000109277051092760510927505109274055E
:10201000109273058DE991E090937A05809379058C
:1020200090916905963108F058C02DEB30E030935F
:102030007405209373052BE931E0309376052093E6
:1020400075052CE231E030937805209377054091B7
:102050006800983058F031E09E3008F430E021E01C
:10206000822F01C0880F3A95EAF701C084E0842BE3
:1020700080936800983038F09E3040F0963148F0F8
:1020800020E030E008C02DE630E005C02BE630E06F
:1020900002C02CE630E03093710520937005983033
:1020A00030F481E001C0880F9A95EAF70EC0292F1D
:1020B00030E09E3018F42850310902C02E5031090A
:1020C00081E001C0880F2A95EAF78093720580911C
:1020D000790590917A050197F1F7809177059091B4
:1020E0007805892B49F1E0918604F091870425E079
:1020F000ED35F20709F1309739F0A389B4899C9145
:102100008589809589238C9380917B058E7F809330
:102110007B0510928504109284048DE595E09093E0
:10212000870480938604E0917005F0917105908199
:1021300080917205892B808368E571E08DE595E0DB
:102140000E94660B63E671E08DE595E00E94660BE8
:102150000E94E60EC12CD12C76010E94EE14C82FED
:102160000E94250F66E671E08DE595E00E947B0BED
:102170004AE0C701B6010E94520C63E771E08DE5A9
:1021800095E00E947B0B8C2F0E94950C8FEFC81A54
:10219000D80AE80AF80A2AE1C216D104E104F104D7
:1021A000E1F6C12CD12C7601C6010E94490FC82F3F
:1021B00067E771E08DE595E00E947B0BC701B601F2
:1021C0000E94CB0C63E771E08DE595E00E947B0BEC
:1021D0008C2F0E94950C8FEFC81AD80AE80AF80ACB
:1021E0002AE0C216D104E104F104F1F6C12CD12C8D
:1021F00076010E94EE14C82F0E94250F66E671E05A
:102200008DE595E00E947B0BC701B6010E94CB0CC7
:1022100063E771E08DE595E00E947B0B8C2F0E94B7
:10222000950C8FEFC81AD80AE80AF80A2DE0C216F2
:10223000D104E104F104E9F6C12CD12C7601C601E8
:102240000E94490FC82F67E771E08DE595E00E9475
:102250007B0BC701B6010E94CB0C63E771E08DE5F3
:1022600095E00E947B0B8C2F0E94950C8FEFC81A73
:10227000D80AE80AF80A2AE0C216D104E104F104F7
:10228000F1F6E091B704F091B80482E08083E09128
:10229000B304F091B4041082E091B504F091B60457
:1022A00080E180831092BF04E091BB04F091BC04F4
:1022B00086E08083E091B904F091BA048081806166
:1022C0008083E091B904F091BA04808188608083B2
:1022D000E091B904F091BA04808180688083E09134
:1022E000B904F091BA0480818F7D808385E691E006
:1022F0000E943C0284E891E00E943C020E94DA0BBA
:102300008CE891E00E943C020E94DA0B61E08EE0D2
:102310000E94630F61E08FE00E94630F61E08EE036
:102320000E94940E60E08FE00E94940E80919304CE
:102330008E7F8E6080618093930486E495E0909315
:102340005B0580935A0510929204109291041092AA
:10235000900410928F0410928E0481E080938D047B
:1023600010928C0461E082E10E94940E61E083E1AE
:102370000E94940E8091B9008E7F8093B900809165
:10238000B9008D7F8093B90088E48093B80085E41C
:102390008093BC0089E391E090938B0480938A043E
:1023A0008AE391E0909389048093880468E686E448
:1023B00095E00E9439088EE090E00E94D50B86E4FB
:1023C00095E00E94DD0741E050E068E670E086E4B9
:1023D00095E00E94430886E495E00E944A01C82FD8
:1023E00068E686E495E00E9439088EE090E00E945D
:1023F000D50B6C2F6376606486E495E00E94C9017A
:1024000086E495E00E94DD0788EF91E09093050156
:102410008093040180916900836080936900E89A49
:10242000D2E48091930482FF1AC083EF0E94D10C02
:1024300085EF0E94D10CD0937C0080917A0080645B
:1024400080937A0080917A0086FDFCCF809178009D
:1024500080917900809193048B7F80939304F09016
:102460009304F1FE99C068E686E495E00E9439087D
:1024700082E090E00E94D50B86E495E00E94DD07A3
:1024800041E050E068E670E086E495E00E94430891
:1024900086E495E00E944A0121E0AC014074552792
:1024A00086FF20E020939D04282F2F70452B49F0B4
:1024B00085FB992790F990939C0482958170880FF1
:1024C00004C08695869586958670182F110F110F7A
:1024D000810F182F120F1093950468E686E495E09B
:1024E0000E94390881E090E00E94D50B86E495E0D7
:1024F0000E94DD0741E050E068E670E086E495E088
:102500000E94430886E495E00E944A01982F929524
:102510009F70C82FCF708AE0989FC00D1124C09380
:10252000960468E686E495E00E94390880E090E031
:102530000E94D50B86E495E00E94DD0741E050E063
:1025400068E670E086E495E00E94430886E495E042
:102550000E944A01282F22952F70982F9F708AE0A1
:10256000289F900D112490939704F4FE05C080914C
:1025700093048F7E80939304111109C0C11107C089
:10258000911105C080919304886080939304809199
:1025900093048D7F809393048091930483FF9EC066
:1025A00068E686E495E00E94390884E090E00E94A5
:1025B000D50B86E495E00E94DD0741E050E068E637
:1025C00070E086E495E00E94430886E495E00E946E
:1025D0004A01982F92959F708F702AE0929F800DEC
:1025E00011248093980468E686E495E00E943908F7
:1025F00083E090E00E94D50B86E495E00E94DD0721
:1026000041E050E068E670E086E495E00E9443080F
:1026100086E495E00E944A01982F92959F708F70F2
:102620002AE0929F800D11248093990468E686E445
:1026300095E00E94390885E090E00E94D50B86E481
:1026400095E00E94DD0741E050E068E670E086E436
:1026500095E00E94430886E495E00E944A01982F85
:10266000991F9927991F90939404982F9695969562
:1026700096959E70292F220F220F920F8F70890F2F
:1026800080939A0468E686E495E00E94390886E023
:1026900090E00E94D50B86E495E00E94DD0741E0C2
:1026A00050E068E670E086E495E00E94430886E426
:1026B00095E00E944A01982F92959F708F702AE0B2
:1026C000929F800D112480939B0480919304877FB7
:1026D0008093930460E08DE00E94940E0E948D0030
:1026E000A0CECF931092AA041092A90488EE93E092
:1026F000A0E0B0E08093AB049093AC04A093AD0451
:10270000B093AE042AE131E03093A8042093A704EB
:1027100025EC30E03093B4042093B30424EC30E093
:102720003093B6042093B50420EC30E03093B80425
:102730002093B70421EC30E03093BA042093B9041D
:1027400022EC30E03093BC042093BB0426EC30E054
:102750003093BE042093BD041092C0041092C104B3
:102760001092C2041092C304109281051092820547
:10277000109285051092870542E050E060E070E01D
:10278000409388055093890560938A0570938B0563
:1027900010929F051092A9051092A8052CE231E035
:1027A0003093A7052093A6051092AB0520E5209352
:1027B00044051092450510924905109248058093F2
:1027C0004A0590934B05A0934C05B0934D0528E323
:1027D00031E0309347052093460510926005109232
:1027E0005F058093610590936205A0936305B093A4
:1027F00064058AE491E090935E0580935D051092F4
:10280000740510927305109276051092750510925A
:1028100078051092770510927A05109279056091EB
:102820007B056E7F6D7F60937B056695617081E0AF
:10283000682787E00E94940E61E087E00E94630FA2
:10284000E5EBF0E0E491E0936D05E1EAF0E0E4917E
:10285000F0E0EE0FFF1FE057FF4F859194919093AA
:102860006F0580936E0560E088E00E94630F8091A1
:102870007B0581FD04C061E088E00E94940E88E041
:1028800080936905E6EBF0E0E491E0936A05E2EA03
:10289000F0E0E491F0E0EE0FFF1FEA57FF4F859163
:1028A000949190936C0580936B05CFB7F8948091C9
:1028B000C505811127C0E4EAF0E08491E8EBF0E07F
:1028C0009491E82FF0E0EE0FFF1FE458FF4FA59121
:1028D000B491EC91E92321F461E08AE00E94940E26
:1028E00061E08AE00E94630F8CB580618CBD8CB57D
:1028F00080648CBD61E08DE00E94630F61E08BE03D
:102900000E94630F8091C5058F5F8093C505CFBF7F
:1029100061E08AE00E94630F0E94E10E8CB58C7F1B
:102920008CBD8DB58E7F8DBD8AE08093530580E090
:1029300094E090935505809354058FEF8093520552
:10294000CF9108958F929F92AF92BF92CF92DF92D4
:10295000EF92FF92CF93DF93EC01688179818A81B6
:102960009B81611571058105910521F464E279ED82
:102970008BE597E02DE133EF41E050E00E94FE143B
:1029800049015A019B01AC01A7EAB1E40E941D155F
:102990006B017C01ACEEB4EFA50194010E942B15F4
:1029A000DC01CB018C0D9D1DAE1DBF1DB7FF03C00B
:1029B0000197A109B04888839983AA83BB839F7735
:1029C000DF91CF91FF90EF90DF90CF90BF90AF90CD
:1029D0009F908F9008950E94A214089582E191E043
:1029E0000E94A2140895A0E0B0E080931201909399
:1029F0001301A0931401B09315010895052E97FBC0
:102A00001EF400940E94151557FD07D00E94301542
:102A100007FC03D04EF40C94151550954095309555
:102A200021953F4F4F4F5F4F08959095809570953A
:102A300061957F4F8F4F9F4F08950E945215A59F1C
:102A4000900DB49F900DA49F800D911D11240895A9
:102A5000B7FF0C941D150E941D15821B930B089542
:102A6000A1E21A2EAA1BBB1BFD010DC0AA1FBB1F92
:102A7000EE1FFF1FA217B307E407F50720F0A21B04
:102A8000B30BE40BF50B661F771F881F991F1A9471
:102A900069F760957095809590959B01AC01BD019B
:102AA000CF010895A29FB001B39FC001A39F700DF5
:102AB000811D1124911DB29F700D811D1124911D46
:102AC000089597FB072E16F4009407D077FD09D0E0
:102AD0000E94751507FC05D03EF4909581959F4F97
:102AE0000895709561957F4F0895AA1BBB1B51E116
:102AF00007C0AA1FBB1FA617B70710F0A61BB70B6E
:102B0000881F991F5A95A9F780959095BC01CD0112
:102B10000895EE0FFF1F0590F491E02D099481E0D8
:102B200090E0F8940C94941510E0C2E6D0E004C054
:102B3000FE010E9489152196C336D107C9F7F89482
:022B4000FFCFC5
:102B4200FFFFFFFFBA09BA0900000A0014001E00C5
:102B5200280001000000000000002E0ABB09E50960
:102B62007B0A160AF409080A00000000F605BB09F0
:102B72006701660100000000C9019C016701AF0006
:102B82005E014A013B0100000000B000BB09670181
:102B9200AF000001180197005374617274207072C3
:102BA2006F67000D0A005352414D207772697465B8
:102BB2003A2000202F20005352414D20207265619F
:102BC200643A2000626B636D643D31007061676539
:042BD20020300000AF
:00000001FF
