:100000000C9463000C94180B0C94F10A0C946D077B
:100010000C946D070C946D070C948B000C948B0062
:100020000C948B000C948B000C948B000C948B0024
:100030000C948B000C948B000C948B000C948B0014
:100040000C94A70A0C948B000C94650B0C943F0B3A
:100050000C948B000C948B000C948B000C948B00F4
:100060000C9496080C948B0000000008000201001C
:100070000003040700000000000000000000000072
:10008000240027002A000000000023002600290089
:1000900000000000250028002B00040404040404D0
:1000A0000404020202020202030303030303010227
:1000B00004081020408001020408102001020408F6
:1000C00010202511910E11241FBECFEFD8E0DEBF06
:1000D000CDBF25E0AAE5B1E001C01D92AC38B20762
:1000E000E1F711E0A0E0B1E0E2E3F5E202C0059043
:1000F0000D92AA35B107D9F710E0C2E6D0E004C0EE
:100100002197FE010E948112C136D107C9F70E94D2
:10011000AD0E0C948C120C94000080E090E0892BC2
:1001200029F00E942C0A81110C940000089520915E
:100130004602309147022817390771F49091450221
:1001400080914402981741F0E0914502F0E0EC5FA5
:10015000FD4F808190E008958FEF9FEF08950895FF
:100160001F93CF93DF93DC015C968D919C915D97FB
:10017000009739F421E030E013963C932E931297C8
:100180003BC05196ED91FC91529750962C9150970F
:10019000322F30951FB75E964C915E97742F727018
:1001A00041FD6095F8944081772311F0422B01C006
:1001B00043234083EC012197F1F748E0508160FF31
:1001C00002C0522B01C053235083EC012197F1F759
:1001D0006695415099F78081772319F083238083B6
:1001E00002C0282B20831FBF5C968D919C915D9748
:1001F0000197F1F781E090E0DF91CF911F91089591
:1002000020914602309147022817390771F48091F6
:1002100044022091450290E0805C9F4F821B91092F
:1002200060E470E00E945912089580E090E0089523
:10023000209146023091470228173907B9F490916E
:10024000450280914402981789F0E0914502F0E060
:10025000EC5FFD4F80812091450230E02F5F3F4FE2
:100260002F7333272093450290E008958FEF9FEF7F
:1002700008958EBD00000DB407FEFDCF8EB5089524
:100280008FEF0C94390108950895E09158048091FE
:100290005704E81730F4F0E0EC51FE4F808190E015
:1002A00008958FEF9FEF089590915804809157041F
:1002B000981750F4E92FF0E0EC51FE4F208130E028
:1002C0009F5F9093580402C02FEF3FEFC90108953C
:1002D0008091570490E020915804821B9109089561
:1002E000089580E090E0089585ED8093BC008091B2
:1002F000BC0084FDFCCF10925404089540917B0112
:10030000262F30E0240F311D21323105DCF42091FD
:1003100054042430C9F4FC0180E090E0861758F4BE
:1003200030917B012191DC01A55ABE4FA30FB11D75
:100330002C930196F3CF80917B01680F60937B0132
:1003400080E0089581E0089582E00895CF92DF92E1
:10035000EF92FF920F931F93CF93DF937C01CB011A
:100360008A012091E301222389F0EB016B01C40E85
:10037000D51ECC15DD0569F06991D701ED91FC9191
:100380000190F081E02DC7010995F3CF642F0E9401
:100390007E01C801DF91CF911F910F91FF90EF90E7
:1003A000DF90CF900895CF93DF931F92CDB7DEB744
:1003B00069832091E3012223D1F02091550420325A
:1003C00040F021E030E0FC013383228380E090E0C4
:1003D00015C080915604E82FF0E0ED53FE4F99814F
:1003E00090838F5F809356048093550405C061E02D
:1003F000CE0101960E947E0181E090E00F90DF9196
:10040000CF9108958091590480FD03C0826080934C
:10041000590480915A018F5F813019F080935A01FD
:10042000089510925A018091590484608093590470
:1004300008950F931F93CF93DF93EB010E940D0E4E
:100440008B010E9440018F3F49F00E940D0E601BFE
:10045000710B6C177D07A8F380E001C081E0DF918C
:10046000CF911F910F91089561E0FC0184810E945A
:10047000840D809148028111109248020895CF9313
:10048000DF93EC018E81882389F08F8198859C0110
:100490002F5F3F4F38872F838230924018F40E949D
:1004A0004001F3CFCE010E9434021E82DF91CF9132
:1004B00008958F929F92AF92BF92FF920F931F93D6
:1004C000CF93DF93EC01F62E49015A010E943F02BF
:1004D00080914802811109C081E080934802909187
:1004E0000A0580910B059CBD8DBD60E08C810E944A
:1004F000840D6CE271E0CE010E9419028F2D8064A0
:100500000E94390108E110E0D501C401002E04C0A9
:10051000B695A795979587950A94D2F70E943901C9
:1005200008501109083F8FEF180771F7FF2029F0D5
:1005300088E0F81204C087E803C085E901C08FEFA6
:100540000E94390110E00E9440018A8787FF04C0A1
:100550001F3F11F01F5FF7CFDF91CF911F910F91D8
:10056000FF90BF90AF909F908F900895EF92FF9271
:100570000F931F93CF93DF93EC0179014115510540
:100580006105710511F482E13CC08B85833039F03F
:1005900089E0440F551F661F771F8A95D1F79A018E
:1005A000AB0168E1CE010E945902882311F084E07A
:1005B00028C08EEF0E94390187018EEFF81AF801EA
:1005C00081918F010E943901E016F106C1F78FEF8A
:1005D0000E9439018FEF0E9439010E9440018A87F1
:1005E0008F71853031F081E18D83CE010E9434021C
:1005F00009C068E572E0CE010E941902811107C0AE
:1006000085E18D83CE010E94340280E014C020E099
:1006100030E0A9016DE0CE010E945902811109C0AC
:100620000E944001811105C0CE010E94340281E088
:1006300002C084E1E6CFDF91CF911F910F91FF902F
:10064000EF90089580914902882389F1409100013B
:100650005091010160910201709103012EE432E09A
:1006600080E090E00E94B602811102C080E008950F
:1006700040914A0250914B0260914C0270914D02A0
:10068000411551056105710581F02EE432E080E0ED
:1006900090E00E94B602882349F310924A02109219
:1006A0004B0210924C0210924D021092490281E0CE
:1006B0000895AF92BF92CF92DF92EF92FF921F9375
:1006C000CF93DF936B017C01142F809100019091F7
:1006D0000101A0910201B09103018C159D05AE05A9
:1006E000BF0509F48FC00E942203882309F490C03B
:1006F000809106008823A1F0809100009091010074
:10070000A0910200B0910300C816D906EA06FB06C4
:1007100039F48091070090910800892B09F443C0B7
:10072000C0920000D0920100E0920200F09203001B
:1007300080910B00A7019601833039F099E0220FD8
:10074000331F441F551F9A95D1F761E180E090E077
:100750000E945902882321F083E08093050044C061
:100760000E940D0EEB010E94400180930A008F3F12
:1007700049F40E940D0E6C1B7D0B6D32714098F395
:100780008FE003C08E3F41F08DE08093050080E054
:1007900090E00E94340228C01092080010920700D6
:1007A00081E080930600CEE4D2E08EE4A82E84E0BF
:1007B000B82E0E9440018993AC16BD06D1F78091F6
:1007C0000700909108009E5F9093080080930700B7
:1007D00020910900222319F08115924058F080E001
:1007E00090E00E943F0206C080E090E00E94340248
:1007F00080E00EC0C0920001D0920101E09202019F
:10080000F092030140914902412B4093490281E05B
:10081000DF91CF911F91FF90EF90DF90CF90BF902D
:10082000AF900895FC01848DDF01A80FB11DA35A7C
:10083000BF4F2C91848D90E001968F739927848F00
:10084000A689B7892C93A089B1898C918370806423
:100850008C93938D848D981306C00288F389E02DC4
:1008600080818F7D80830895CF93DF93EC018DE6A7
:1008700094E00E94200A892B29F08DE694E00E94E2
:10088000FE09F5CF209769F0FE0101900020E9F7FD
:100890003197AF014C1B5D0BBE018DE694E00E94C9
:1008A000C5096FEF8DE694E00E94380A6FEF8DE680
:1008B00094E00E94380A6FEF8DE694E0DF91CF91CB
:1008C0000C94380A4F925F926F927F928F929F9210
:1008D000AF92BF92CF92DF92EF92FF920F931F934E
:1008E000CF93DF93EC01423051056105710510F49F
:1008F00080E078C089859A85AB85BC850196A11D6D
:10090000B11D84179507A607B70790F3CB88DC883D
:10091000ED88FE888F89803129F4BB27A72F962F79
:10092000852F09C0DB01CA01E7E0B695A795979529
:100930008795EA95D1F7480159012A013B01C80E74
:10094000D91EEA1EFB1E8091000190910101A09129
:100950000201B0910301C816D906EA06FB0681F42C
:100960008F898031A9F4B301A20155276627772723
:10097000440F551FFA01E25BFD4F9182808219C03E
:1009800040E0C701B6010E9459038111E9CFB0CF01
:10099000B301A2014F77552766277727440F551FCC
:1009A000440F551FFA01E25BFD4F80829182A282C3
:1009B000B382809149028160809349028A898230A2
:1009C00080F08D819E81AF81B885C80ED91EEA1E48
:1009D000FB1EC0924A02D0924B02E0924C02F0926F
:1009E0004D0281E0DF91CF911F910F91FF90EF9029
:1009F000DF90CF90BF90AF909F908F907F906F903F
:100A00005F904F9008958F929F92AF92BF92CF9236
:100A1000DF92EF92FF920F931F93CF93DF93FC012E
:100A200081859285A385B4850196A11DB11D84178A
:100A30009507A607B70710F480E05BC08388948809
:100A4000A588B6888789803129F4BB27A72F962FE0
:100A5000852F09C0DB01CA01C7E0B695A795979518
:100A60008795CA95D1F7E9016A017B018F01BC0125
:100A7000CD01680D791D8A1D9B1D8090000190900D
:100A80000101A0900201B0900301681579058A0563
:100A90009B0591F4F80187898031A1F4DD24EE24CF
:100AA000FF24C601880F991FFC01E25BFD4F808186
:100AB0009181A0E0B0E018C040E00E94590381118C
:100AC000E9CFBACFE894C7F8DD24EE24FF24C601AD
:100AD000880F991F880F991FFC01E25BFD4F8081F1
:100AE0009181A281B381BF7088839983AA83BB83DC
:100AF00081E0DF91CF911F910F91FF90EF90DF90F8
:100B0000CF90BF90AF909F908F9008954F925F923B
:100B10006F927F92AF92BF92CF92DF92EF92FF924D
:100B20000F931F93CF93DF9300D000D01F92CDB7C8
:100B3000DEB78C016D83DC0115968C9115978130A1
:100B400009F054C014968C9181FF50C057C0258580
:100B500030E0275F3F4F2A013B01B1E04B1A5108BB
:100B600061087108022E04C07694679457944794E4
:100B70000A94D2F7D701C6010197A109B10904C0AF
:100B8000B695A795979587952A95D2F784159505DB
:100B9000A605B70508F076C0F8014789508D618D2C
:100BA000728D46835783608771872C013D01580100
:100BB000F6E0AF0EB11C411451046104710409F454
:100BC0006BC0D80116964D915D916D917C911997EE
:100BD00095015B968D919C915C970E940305B1E015
:100BE0004B1A5108610871088111E5CF81E090E04E
:100BF000F8019383828380E090E05BC182FF0EC0A6
:100C0000F8014285538564857585C388D488E58855
:100C1000F6884C155D056E057F05E9F4D8011A9636
:100C20004D915D916D917C911D975B96ED91FC913D
:100C30005C97948191506A017B0189E0F694E79476
:100C4000D794C7948A95D1F79C217A01B1E0FB2211
:100C5000911173C027C0D801038CF48DE02DC1140D
:100C6000D104E104F10409F072CF16961D921D9291
:100C70001D921C9219971A961D921D921D921C92FC
:100C80001D9714C0452B462B472B09F485CF84199B
:100C90009509A609B70989CFF801C286D386E486EB
:100CA000F586BCCFE114F10409F047C0D8011696CF
:100CB0004D915D916D917C9119974115510561059B
:100CC000710559F457968D919D910D90BC91A02D71
:100CD0000097A105B10549F522C09E012F5F3F4F46
:100CE000CF010E940305882309F485CF89819A8169
:100CF000AB81BC81F801238D348DF9012789203126
:100D000029F448EF5FEF60E070E004C048EF5FEF68
:100D10006FEF7FE084179507A607B70730F0C8018B
:100D20000E94810C811106C061CFF80186839783F0
:100D3000A087B187E12CF12C90E0D8015B96ED9172
:100D4000FC915C9716964D905D906D907C901997F4
:100D5000B2E04B1A510861087108058404C0440CC4
:100D6000551C661C771C0A94D2F746855785608906
:100D70007189440E551E661E771E490E511C611C5A
:100D8000711CE114F10409F5F8014285538564856D
:100D9000758583899489A589B689481759076A0793
:100DA0007B0798F00E942203882309F41FCF40920A
:100DB0000001509201016092020170920301809142
:100DC000490281608093490208C041E0C301B20139
:100DD0000E945903882309F409CFF701E25BFD4F14
:100DE0008D818083F80182859385A485B5850196E0
:100DF000A11DB11D82879387A487B5874389548934
:100E000065897689481759076A077B0738F4838B09
:100E1000948BA58BB68B848180688483D8011496CB
:100E20008C9183FD03C081E090E043C0F80195817F
:100E3000992309F4DBCE87FF37C0668577858089E3
:100E4000918941E00E945903882309F4CFCED8014B
:100E50005296EC91B0E2EB9FF0011124E25BFD4F62
:100E6000309709F4C3CED80115968C91159782302E
:100E700050F453964D915D916D917C915697448FAE
:100E8000558F668F778FD80157964D915D916D91F3
:100E90007C915A97538F428F758B648B14968C91EB
:100EA00014978F7714968C930E9422038111BBCFE5
:100EB0009DCE0F900F900F900F900F90DF91CF91DC
:100EC0001F910F91FF90EF90DF90CF90BF90AF9068
:100ED0007F906F905F904F9008951F920F920FB682
:100EE0000F9211242F933F934F935F936F937F93B0
:100EF0008F939F93AF93BF93EF93FF93E09146023D
:100F0000F0914702309709F451C0968DA685B785B8
:100F1000858591FF04C09C91892329F447C09C9149
:100F2000892309F043C0A389B4899C918589809560
:100F300089238C93868997890197F1F7608D718D4C
:100F4000A685B785558538E020E0CB010197F1F7FC
:100F5000822F90E095958795282F4C91452309F095
:100F60002068315091F7868D81FD20958091440253
:100F700090E001968F73992730914502381749F018
:100F8000A0914402B0E0AC5FBD4F2C93809344022B
:100F900003C0868D8160868F828D938D0197F1F7D6
:100FA000A389B4899C918589892B8C93FF91EF91BA
:100FB000BF91AF919F918F917F916F915F914F9171
:100FC0003F912F910F900FBE0F901F901895309169
:100FD0005504313208F04BC0809154048111FCCF8C
:100FE0009091C20122E02093540421E02093530405
:100FF0002FEF2093C1011092C0013093BF01E3ECA9
:10100000F1E0AFE9B1E020E0321721F041914D93DA
:101010002F5FFACF10929E0120919E01990F922B83
:1010200090939E0190915204913061F41092520479
:1010300090919E019093BB009091BC0093FDF8CFDE
:1010400095EC01C095EE9093BC00909154049230C1
:10105000E1F39091C1019F3F79F08091C10180320D
:1010600041F08091C101803331F084E005C081E01E
:1010700003C082E001C083E0109256041092550430
:101080001092E301089581E08093E3016093C2012F
:1010900010925604109255040895809154048111C1
:1010A000FCCF413208F040E281E080935404809309
:1010B00053049FEF9093C1011092C001940F90933D
:1010C000BF0180939E0180919E01660F682B609303
:1010D0009E0180915204813061F4109252048091FB
:1010E0009E018093BB008091BC0083FDF8CF85EC0E
:1010F00001C085EE8093BC00809154048130E1F3FF
:101100008091C001841710F44091C001AFE9B1E0B3
:10111000E4EEF1E080E0841721F09D9191938F5FE0
:10112000FACF109258048093570408951F920F929B
:101130000FB60F9211242F933F934F935F936F93AA
:101140007F938F939F93AF93BF93EF93FF93809180
:10115000B900887F803609F49CC068F5883209F4AC
:101160005BC090F4803109F454C038F4882309F44A
:10117000F6C0883009F44DC0F6C0883109F44CC07F
:10118000803209F45DC0EFC0803409F468C048F4CF
:10119000803309F455C0883309F0E5C08093C1015C
:1011A000D8C0803509F44FC0883509F45DC0883453
:1011B00009F0D9C0D6C0883909F4C7C0A8F4883767
:1011C00009F467C038F4883609F463C0803709F43D
:1011D00060C0C9C0883809F4B8C0803909F45FC05C
:1011E000803809F0C0C05BC0803B09F486C038F489
:1011F000803A09F466C0883A09F47FC0B4C0803CE4
:1012000009F4A7C0883C09F4A4C0883B09F48AC04B
:10121000AAC080919E0110C09091C0018091BF0131
:10122000981770F5E091C00181E08E0F8093C001A6
:10123000F0E0E156FE4F80818093BB0085EC86C0D4
:101240008093C1018EC0E091C00181E08E0F809338
:10125000C0018091BB00F0E0E156FE4F8083909189
:10126000C0018091BF016EC0E091C00181E08E0F8E
:101270008093C0018091BB00F0E0E156FE4F808377
:101280008091530481116DC081E08093520484EAFF
:1012900061C083E08093540410929D01CFCF809170
:1012A0009D01803208F051C0E0919D0181E08E0FD8
:1012B00080939D018091BB00F0E0E358FE4F808356
:1012C000BDCF85EC8093BC001092540480919D01A9
:1012D000803230F4E0919D01F0E0E358FE4F10823F
:1012E00060919D0170E0E0914E04F0914F048DE714
:1012F00091E0099510929D0136C084E080935404DA
:1013000010927C0110927B01E0915004F091510405
:10131000099580917B01811105C081E080937B015B
:1013200010925B01E0917C0181E08E0F80937C0143
:10133000F0E0E55AFE4F80818093BB0090917C01E4
:1013400080917B01981708F479CF85E88093BC00E1
:101350000AC085EC8093BC001092540404C0109223
:10136000C1010E947401FF91EF91BF91AF919F91D4
:101370008F917F916F915F914F913F912F910F903E
:101380000FBE0F901F9018950895CF92DF92EF92A5
:10139000FF920F931F93CF93DF936C017A018B0120
:1013A000C0E0D0E0CE15DF0581F0D8016D918D0150
:1013B000D601ED91FC910190F081E02DC6010995D7
:1013C000892B11F02196EECF7E01C701DF91CF91DD
:1013D0001F910F91FF90EF90DF90CF900895FC0147
:1013E000538D448D252F30E0842F90E0821B930B8A
:1013F000541710F0CF96089501970895FC01918D30
:10140000828D981761F0828DDF01A80FB11D5D9666
:101410008C91928D9F5F9F73928F90E008958FEFD4
:101420009FEF0895FC01918D828D981731F0828D88
:10143000E80FF11D858D90E008958FEF9FEF0895DF
:10144000FC01918D228D892F90E0805C9F4F821B43
:1014500091098F73992708958DE694E00E94200AE0
:1014600021E0892B09F420E0822F08950E94871241
:10147000EF92FF920F931F93CF93DF93EC0181E0E4
:10148000888F9B8D8C8D981305C0E889F9898081A0
:1014900085FD26C0F62E0B8D10E00F5F1F4F0F73DA
:1014A0001127E02E8C8DE8120CC00FB607FCFACF86
:1014B000E889F989808185FFF5CFCE010E94120469
:1014C000F1CF8B8DFE01E80FF11DE35AFF4FF08243
:1014D0009FB7F8940B8FEA89FB89808180620AC0EC
:1014E0009FB7F894EE89FF896083E889F989808144
:1014F0008370806480839FBF81E090E0DF91CF9113
:101500001F910F91FF90EF900895CF93DF93EC011F
:10151000888D8823C9F0EA89FB89808185FD05C013
:10152000A889B9898C9186FD0FC00FB607FCF5CF4D
:10153000808185FFF2CFA889B9898C9185FFEDCF95
:10154000CE010E941204E7CFDF91CF9108951F9240
:101550000F920FB60F9211242F933F938F939F9367
:10156000AF93BF938091650490916604A091670446
:10157000B09168043091640423E0230F2D3720F4E8
:101580000196A11DB11D05C026E8230F0296A11DDD
:10159000B11D209364048093650490936604A09326
:1015A0006704B09368048091690490916A04A091E3
:1015B0006B04B0916C040196A11DB11D8093690468
:1015C00090936A04A0936B04B0936C04BF91AF91A5
:1015D0009F918F913F912F910F900FBE0F901F9071
:1015E00018951F920F920FB60F9211242F933F93CD
:1015F0004F935F936F937F938F939F93AF93BF931B
:10160000EF93FF93E0910601F09107010995FF9197
:10161000EF91BF91AF919F918F917F916F915F916A
:101620004F913F912F910F900FBE0F901F901895E3
:101630001F920F920FB60F9211242F933F934F9347
:101640005F936F937F938F939F93AF93BF93EF932A
:10165000FF93E0910401F09105010995FF91EF914D
:10166000BF91AF919F918F917F916F915F914F91BA
:101670003F912F910F900FBE0F901F9018951F92C2
:101680000F920FB60F9211242F933F934F935F93B6
:101690006F937F938F939F93AF93BF93EF93FF933A
:1016A0008DE694E00E941204FF91EF91BF91AF91FB
:1016B0009F918F917F916F915F914F913F912F916A
:1016C0000F900FBE0F901F9018951F920F920FB69C
:1016D0000F9211242F938F939F93EF93FF93E09199
:1016E0007D04F0917E048081E0918304F091840474
:1016F00082FD12C09081809186048F5F8F7320914C
:101700008704821751F0E0918604F0E0E359FB4F23
:10171000958F8093860401C08081FF91EF919F9106
:101720008F912F910F900FBE0F901F9018953FB77C
:10173000F8948091690490916A04A0916B04B0912F
:101740006C0426B5A89B05C02F3F19F00196A11D7A
:10175000B11D3FBFBA2FA92F982F8827820F911D47
:10176000A11DB11DBC01CD0142E0660F771F881F8E
:10177000991F4A95D1F70895682F8CE095E00C9455
:10178000D3018F929F92AF92BF92CF92DF92EF924E
:10179000FF920F931F93CF93C82F60E48091200591
:1017A000909121050E944308809120059091210588
:1017B000DC01ED91FC910190F081E02D6C2F0995F9
:1017C00080912005909121050E94E707CAE00E94C0
:1017D000970B4B015C01AAE0CA2ED12CE12CF12C15
:1017E0000E94970BDC01CB0188199909AA09BB0952
:1017F000883E9340A105B10598F3B1E0CB1AD1081A
:10180000E108F10828EE820E23E0921EA11CB11C13
:10181000C114D104E104F10419F743E050E060E49D
:1018200070E080912005909121050E944D08C150E3
:1018300009F456C0833059F6809120059091210516
:10184000DC01ED91FC910284F385E02D0995F82EE1
:101850008091200590912105DC01ED91FC9102849D
:10186000F385E02D0995C82F8091200590912105E1
:10187000DC01ED91FC910284F385E02D09951F2D8B
:1018800000E098012C2BA90160E070E0762F652F15
:10189000542F4427482B87E190E0C12CE0E8DE2E4E
:1018A000E8E9EE2EF12C4A015B01082E04C0B69443
:1018B000A794979487940A94D2F780FE04C04C258D
:1018C0005D256E257F25F694E794D794C7940197FC
:1018D0008730910541F7411106C0C9018C7F05C0D1
:1018E00086EE93E002C087EE93E0CF911F910F91B7
:1018F000FF90EF90DF90CF90BF90AF909F908F9030
:1019000008953F924F925F926F927F928F929F9233
:10191000AF92BF92CF92DF92EF92FF920F931F93FD
:10192000CF93DF93CDB7DEB72C970FB6F894DEBF19
:101930000FBECDBF5C01DC015B968D909C905C97E7
:101940001696CD90DD90ED90FC901997C114D104BE
:10195000E104F10439F0BFEFCB1ADB0AEB0AFB0A12
:10196000312C07C0F401C080D180E280F3803324A1
:101970003394F40181859285A385B4859C01AD01E2
:101980002F5F3F4F4F4F5F4F29873A874B875C87C9
:10199000260137011D821E821F821886F40181856F
:1019A0009285A385B4852D813E814F815885281766
:1019B00039074A075B0708F063C089859A85AB85BC
:1019C000BC858C159D05AE05BF0550F482E0C82E80
:1019D000D12CE12CF12C92E0492E512C612C712C50
:1019E0009E012F5F3F4FB701A601C4010E9403056E
:1019F000882309F445C089819A81AB81BC81892BF8
:101A00008A2B8B2B41F0260137019FEF491A590A87
:101A1000690A790A05C0C414D504E604F70491F0F4
:101A20002D813E814F8158852F5F3F4F4F4F5F4F34
:101A30002D833E834F8358873FEFC31AD30AE30AAF
:101A4000F30AACCF0FEF1FEF2FEF3FE0B301A2017E
:101A5000C4010E946204882399F0D50116964D9125
:101A60005D916D917C911997411551056105710545
:101A700049F093018201C4010E946204811102C0F5
:101A800080E02AC0D50116964D925D926D927C92AF
:101A90001997332051F0D301C2010196A11DB11D48
:101AA000F40180839183A283B383F5018789908DAC
:101AB000A18DB28D892B8A2B8B2B69F4D50157967A
:101AC0004D925D926D927C925A9714968C911497D8
:101AD000806814968C9381E02C960FB6F894DEBF44
:101AE0000FBECDBFDF91CF911F910F91FF90EF906F
:101AF000DF90CF90BF90AF909F908F907F906F902E
:101B00005F904F903F90089590E0FC01E859FF4F9F
:101B10002491FC01E255FF4F3491FC01E656FF4F42
:101B2000E491EE2309F43CC0222339F1233091F0F3
:101B300038F42130A9F0223001F584B58F7D12C030
:101B4000273091F02830A1F02430B9F48091800042
:101B50008F7D03C0809180008F77809380000DC0BF
:101B600084B58F7784BD09C08091B0008F7703C0A2
:101B70008091B0008F7D8093B000F0E0EE0FFF1FEA
:101B8000E057FF4FA591B4919FB7F894611104C03D
:101B90008C913095382302C0EC913E2B3C939FBF33
:101BA0000895CF93DF9390E0FC01E255FF4F24911D
:101BB000FC01E656FF4F8491882361F190E0880F85
:101BC000991FFC01E458FF4FC591D491FC01E057E7
:101BD000FF4FA591B491611109C09FB7F894888116
:101BE000209582238883EC912E230BC0623061F410
:101BF0009FB7F8948881322F309583238883EC91A6
:101C00002E2B2C939FBF06C08FB7F894E8812E2B04
:101C100028838FBFDF91CF9108952FB7F8946091FB
:101C200065047091660480916704909168042FBFE9
:101C300008958F929F92AF92BF92EF92FF920F936F
:101C40001F93CF93DF9300D000D0CDB7DEB71982BA
:101C50001A821B821C8284E690E0A0E0B0E08093B0
:101C6000710490937204A0937304B09374048E0172
:101C70000F5F1F4F7E0185E0E80EF11C0E940D0EE4
:101C8000609375047093760480937704909378043E
:101C90008DE694E00E94FE0997FF2CC00E940D0E75
:101CA0008090750490907604A0907704B0907804AA
:101CB000DC01CB0188199909AA09BB09809071043C
:101CC00090907204A0907304B090740488159905E4
:101CD000AA05BB05E8F28981813051F48A818F3FE2
:101CE00039F48B818F3F21F481E09C819F3F51F03B
:101CF00080E008C0F80181938F01EE16FF0609F01D
:101D0000BDCFE9CF0F900F900F900F90DF91CF9143
:101D10001F910F91FF90EF90BF90AF909F908F9089
:101D200008958CE391E0909324058093230580919E
:101D30004602909147028352954071F4E091360536
:101D4000F0913705908180913805809589238083B3
:101D500010924702109246020895789484B58260EA
:101D600084BD84B5816084BD85B5826085BD85B53F
:101D7000816085BD80916E00816080936E001092BD
:101D80008100809181008260809381008091810038
:101D900081608093810080918000816080938000C9
:101DA0008091B10084608093B1008091B000816027
:101DB0008093B00080917A00846080937A00809153
:101DC0007A00826080937A0080917A0081608093AB
:101DD0007A0080917A00806880937A001092C10026
:101DE00060E0809119050E94840DE0917D04F091DE
:101DF0007E0482E08083E0917904F0917A0410827D
:101E0000E0917B04F0917C0480E180831092850452
:101E1000E0918104F091820486E08083E0917F0468
:101E2000F0918004808180618083E0917F04F09153
:101E30008004808188608083E0917F04F091800439
:101E4000808180688083E0917F04F09180048081AC
:101E50008F7D808388E591E00E9434048AE491E0DC
:101E60000E9434040E94190E82E591E00E9434041D
:101E70000E94190E61E08EE00E94D10D61E08FE0BA
:101E80000E94D10D61E08EE00E94840D60E08FE041
:101E90000E94840D809159048E7F8E6080618093B2
:101EA00059048CE095E090932105809320051092D1
:101EB0005804109257041092560410925504109230
:101EC000540481E0809353041092520461E082E153
:101ED0000E94840D61E083E10E94840D8091B9002D
:101EE0008E7F8093B9008091B9008D7F8093B90077
:101EF00088E48093B80085E48093BC0083E491E09B
:101F0000909351048093500484E491E090934F04A3
:101F100080934E0468E68CE095E00E9443088EE0D2
:101F200090E00E94BC0B8CE095E00E94E70741E046
:101F300050E068E670E08CE095E00E944D088CE08F
:101F400095E00E945401C82F68E68CE095E00E945D
:101F500043088EE090E00E94BC0B6C2F63766064B7
:101F60008CE095E00E94D3018CE095E00E94E707A9
:101F700082E092E0909305018093040180916900D2
:101F8000836080936900E89AD2E48091590482FFCB
:101F90001AC083EF0E94C10B85EF0E94C10BD09342
:101FA0007C0080917A00806480937A0080917A002E
:101FB00086FDFCCF80917800809179008091590452
:101FC0008B7F809359040091590401FF99C068E602
:101FD0008CE095E00E94430882E090E00E94BC0BF8
:101FE0008CE095E00E94E70741E050E068E670E091
:101FF0008CE095E00E944D088CE095E00E94540131
:1020000021E0AC014074552786FF20E02093630453
:10201000282F2F70452B49F085FB992790F9909335
:10202000620482958170880F04C086958695869596
:102030008670182F110F110F810F182F120F109388
:102040005B0468E68CE095E00E94430881E090E044
:102050000E94BC0B8CE095E00E94E70741E050E055
:1020600068E670E08CE095E00E944D088CE095E019
:102070000E945401982F92959F70C82FCF702AE02C
:10208000929FC00D1124C0935C0468E68CE095E03B
:102090000E94430880E090E00E94BC0B8CE095E039
:1020A0000E94E70741E050E068E670E08CE095E0D0
:1020B0000E944D088CE095E00E945401282F229543
:1020C0002F70982F9F708AE0289F900D1124909375
:1020D0005D0404FF05C0809159048F7E80935904EC
:1020E000111109C0C11107C0911105C08091590497
:1020F000886080935904809159048D7F809359049E
:102100008091590483FF9EC068E68CE095E00E94B0
:10211000430884E090E00E94BC0B8CE095E00E94B4
:10212000E70741E050E068E670E08CE095E00E944F
:102130004D088CE095E00E945401982F92959F7075
:102140008F702AE0929F800D112480935E0468E6D0
:102150008CE095E00E94430883E090E00E94BC0B75
:102160008CE095E00E94E70741E050E068E670E00F
:102170008CE095E00E944D088CE095E00E945401AF
:10218000982F92959F708F702AE0929F800D112456
:1021900080935F0468E68CE095E00E94430885E048
:1021A00090E00E94BC0B8CE095E00E94E70741E0C4
:1021B00050E068E670E08CE095E00E944D088CE00D
:1021C00095E00E945401982F991F9927991F909389
:1021D0005A04982F9695969596959E70292F220FC2
:1021E000220F920F8F70890F8093600468E68CE055
:1021F00095E00E94430886E090E00E94BC0B8CE0D2
:1022000095E00E94E70741E050E068E670E08CE06E
:1022100095E00E944D088CE095E00E945401982FB3
:1022200092959F708F702AE0929F800D1124809369
:10223000610480915904877F8093590460E08DE0A8
:102240000E94840D0E948D00A0CECF931092700446
:1022500010926F0488EE93E0A0E0B0E080937104E8
:1022600090937204A0937304B09374042CE031E053
:1022700030936E0420936D0425EC30E030937A04A3
:102280002093790424EC30E030937C0420937B0489
:1022900020EC30E030937E0420937D0421EC30E08C
:1022A0003093800420937F0422EC30E0309382044A
:1022B0002093810426EC30E030938404209383043F
:1022C0001092860410928704109288041092890458
:1022D000109247051092480510924B0510924D053B
:1022E00042E050E060E070E040934E0550934F05AF
:1022F00060935005709351051092650510926F051B
:1023000010926E052EE131E030936D0520936C053F
:102310001092710520E520930A0510920B0510928A
:102320000F0510920E058093100590931105A09350
:102330001205B09313052AE231E030930D05209386
:102340000C05109226051092250580932705909381
:102350002805A0932905B0932A058CE391E090937A
:1023600024058093230510923A05109239051092A6
:102370003C0510923B0510923E0510923D051092CF
:10238000400510923F05609141056E7F6D7F60931F
:1023900041056695617081E0682787E00E94840DA1
:1023A00061E087E00E94D10DE5EBF0E0E491E0937D
:1023B0003305E1EAF0E0E491F0E0EE0FFF1FE057B3
:1023C000FF4F85919491909335058093340560E09B
:1023D00088E00E94D10D8091410581FD04C061E03B
:1023E00088E00E94840D88E080932F05E6EBF0E002
:1023F000E491E0933005E2EAF0E0E491F0E0EE0FE2
:10240000FF1FEA57FF4F8591949190933205809377
:102410003105CFB7F89480918B05811127C0E4EA8C
:10242000F0E08491E8EBF0E09491E82FF0E0EE0F1B
:10243000FF1FE458FF4FA591B491EC91E92321F4DB
:1024400061E08AE00E94840D61E08AE00E94D10D83
:102450008CB580618CBD8CB580648CBD61E08DE0F5
:102460000E94D10D61E08BE00E94D10D80918B051F
:102470008F5F80938B05CFBF61E08AE00E94D10D12
:1024800061E0809119050E94840D8CB58C7F8CBD14
:102490008DB58E7F8DBD8AE08093190580E094E034
:1024A00090931B0580931A058FEF80931805CF91A9
:1024B000089597FB072E16F4009407D077FD09D0F6
:1024C0000E946D1207FC05D03EF4909581959F4FB8
:1024D0000895709561957F4F0895AA1BBB1B51E12C
:1024E00007C0AA1FBB1FA617B70710F0A61BB70B84
:1024F000881F991F5A95A9F780959095BC01CD0129
:102500000895EE0FFF1F0590F491E02D099481E0EE
:1025100090E0F8940C948C1210E0C2E6D0E004C075
:10252000FE010E9481122196C336D107C9F7F894A3
:02253000FFCFDB
:10253200FFFFFFFFC409C40900000000380AC509F3
:10254200EF09850A200AFE09120A0000000086052A
:10255200C5097101700100000000D301A6017101DB
:10256200AF0068015401450100000000B000C50938
:102572007101AF00000118019700626B636D643D49
:0A2582003100706167652030000031
:00000001FF
